{
  "contractName": "StakingContractWrapper",
  "abi": [
    {
      "constant": false,
      "inputs": [
        {
          "name": "_newMigrationManager",
          "type": "address"
        }
      ],
      "name": "setMigrationManager",
      "outputs": [],
      "payable": false,
      "stateMutability": "nonpayable",
      "type": "function"
    },
    {
      "constant": true,
      "inputs": [
        {
          "name": "",
          "type": "address"
        }
      ],
      "name": "stakes",
      "outputs": [
        {
          "name": "amount",
          "type": "uint256"
        },
        {
          "name": "cooldownAmount",
          "type": "uint256"
        },
        {
          "name": "cooldownEndTime",
          "type": "uint256"
        }
      ],
      "payable": false,
      "stateMutability": "view",
      "type": "function"
    },
    {
      "constant": true,
      "inputs": [],
      "name": "migrationManager",
      "outputs": [
        {
          "name": "",
          "type": "address"
        }
      ],
      "payable": false,
      "stateMutability": "view",
      "type": "function"
    },
    {
      "constant": false,
      "inputs": [
        {
          "name": "_totalAmount",
          "type": "uint256"
        },
        {
          "name": "_stakeOwners",
          "type": "address[]"
        },
        {
          "name": "_amounts",
          "type": "uint256[]"
        }
      ],
      "name": "distributeRewards",
      "outputs": [],
      "payable": false,
      "stateMutability": "nonpayable",
      "type": "function"
    },
    {
      "constant": true,
      "inputs": [],
      "name": "cooldownPeriodInSec",
      "outputs": [
        {
          "name": "",
          "type": "uint256"
        }
      ],
      "payable": false,
      "stateMutability": "view",
      "type": "function"
    },
    {
      "constant": true,
      "inputs": [],
      "name": "getToken",
      "outputs": [
        {
          "name": "",
          "type": "address"
        }
      ],
      "payable": false,
      "stateMutability": "view",
      "type": "function"
    },
    {
      "constant": false,
      "inputs": [
        {
          "name": "_amount",
          "type": "uint256"
        }
      ],
      "name": "unstake",
      "outputs": [],
      "payable": false,
      "stateMutability": "nonpayable",
      "type": "function"
    },
    {
      "constant": true,
      "inputs": [],
      "name": "totalStakedTokens",
      "outputs": [
        {
          "name": "",
          "type": "uint256"
        }
      ],
      "payable": false,
      "stateMutability": "view",
      "type": "function"
    },
    {
      "constant": false,
      "inputs": [],
      "name": "withdraw",
      "outputs": [],
      "payable": false,
      "stateMutability": "nonpayable",
      "type": "function"
    },
    {
      "constant": true,
      "inputs": [],
      "name": "MAX_APPROVED_STAKING_CONTRACTS",
      "outputs": [
        {
          "name": "",
          "type": "uint256"
        }
      ],
      "payable": false,
      "stateMutability": "view",
      "type": "function"
    },
    {
      "constant": false,
      "inputs": [],
      "name": "restake",
      "outputs": [],
      "payable": false,
      "stateMutability": "nonpayable",
      "type": "function"
    },
    {
      "constant": true,
      "inputs": [],
      "name": "getTotalStakedTokens",
      "outputs": [
        {
          "name": "",
          "type": "uint256"
        }
      ],
      "payable": false,
      "stateMutability": "view",
      "type": "function"
    },
    {
      "constant": true,
      "inputs": [
        {
          "name": "_stakeOwner",
          "type": "address"
        }
      ],
      "name": "getUnstakeStatus",
      "outputs": [
        {
          "name": "cooldownAmount",
          "type": "uint256"
        },
        {
          "name": "cooldownEndTime",
          "type": "uint256"
        }
      ],
      "payable": false,
      "stateMutability": "view",
      "type": "function"
    },
    {
      "constant": true,
      "inputs": [
        {
          "name": "",
          "type": "uint256"
        }
      ],
      "name": "approvedStakingContracts",
      "outputs": [
        {
          "name": "",
          "type": "address"
        }
      ],
      "payable": false,
      "stateMutability": "view",
      "type": "function"
    },
    {
      "constant": true,
      "inputs": [],
      "name": "acceptingNewStakes",
      "outputs": [
        {
          "name": "",
          "type": "bool"
        }
      ],
      "payable": false,
      "stateMutability": "view",
      "type": "function"
    },
    {
      "constant": false,
      "inputs": [],
      "name": "stopAcceptingNewStakes",
      "outputs": [],
      "payable": false,
      "stateMutability": "nonpayable",
      "type": "function"
    },
    {
      "constant": false,
      "inputs": [
        {
          "name": "_stakingContract",
          "type": "address"
        }
      ],
      "name": "removeMigrationDestination",
      "outputs": [],
      "payable": false,
      "stateMutability": "nonpayable",
      "type": "function"
    },
    {
      "constant": false,
      "inputs": [],
      "name": "releaseAllStakes",
      "outputs": [],
      "payable": false,
      "stateMutability": "nonpayable",
      "type": "function"
    },
    {
      "constant": true,
      "inputs": [
        {
          "name": "_stakingContract",
          "type": "address"
        }
      ],
      "name": "isApprovedStakingContract",
      "outputs": [
        {
          "name": "exists",
          "type": "bool"
        }
      ],
      "payable": false,
      "stateMutability": "view",
      "type": "function"
    },
    {
      "constant": false,
      "inputs": [
        {
          "name": "_stakeOwner",
          "type": "address"
        },
        {
          "name": "_amount",
          "type": "uint256"
        }
      ],
      "name": "acceptMigration",
      "outputs": [],
      "payable": false,
      "stateMutability": "nonpayable",
      "type": "function"
    },
    {
      "constant": false,
      "inputs": [
        {
          "name": "_amount",
          "type": "uint256"
        }
      ],
      "name": "stake",
      "outputs": [],
      "payable": false,
      "stateMutability": "nonpayable",
      "type": "function"
    },
    {
      "constant": false,
      "inputs": [
        {
          "name": "_stakeOwners",
          "type": "address[]"
        }
      ],
      "name": "withdrawReleasedStakes",
      "outputs": [],
      "payable": false,
      "stateMutability": "nonpayable",
      "type": "function"
    },
    {
      "constant": false,
      "inputs": [
        {
          "name": "_newStakingContract",
          "type": "address"
        }
      ],
      "name": "addMigrationDestination",
      "outputs": [],
      "payable": false,
      "stateMutability": "nonpayable",
      "type": "function"
    },
    {
      "constant": false,
      "inputs": [
        {
          "name": "_newEmergencyManager",
          "type": "address"
        }
      ],
      "name": "setEmergencyManager",
      "outputs": [],
      "payable": false,
      "stateMutability": "nonpayable",
      "type": "function"
    },
    {
      "constant": true,
      "inputs": [],
      "name": "emergencyManager",
      "outputs": [
        {
          "name": "",
          "type": "address"
        }
      ],
      "payable": false,
      "stateMutability": "view",
      "type": "function"
    },
    {
      "constant": false,
      "inputs": [
        {
          "name": "_newStakingContract",
          "type": "address"
        },
        {
          "name": "_amount",
          "type": "uint256"
        }
      ],
      "name": "migrateStakedTokens",
      "outputs": [],
      "payable": false,
      "stateMutability": "nonpayable",
      "type": "function"
    },
    {
      "constant": true,
      "inputs": [
        {
          "name": "_stakeOwner",
          "type": "address"
        }
      ],
      "name": "getStakeBalanceOf",
      "outputs": [
        {
          "name": "",
          "type": "uint256"
        }
      ],
      "payable": false,
      "stateMutability": "view",
      "type": "function"
    },
    {
      "constant": true,
      "inputs": [],
      "name": "releasingAllStakes",
      "outputs": [
        {
          "name": "",
          "type": "bool"
        }
      ],
      "payable": false,
      "stateMutability": "view",
      "type": "function"
    },
    {
      "constant": true,
      "inputs": [],
      "name": "token",
      "outputs": [
        {
          "name": "",
          "type": "address"
        }
      ],
      "payable": false,
      "stateMutability": "view",
      "type": "function"
    },
    {
      "constant": true,
      "inputs": [],
      "name": "VERSION",
      "outputs": [
        {
          "name": "",
          "type": "uint256"
        }
      ],
      "payable": false,
      "stateMutability": "view",
      "type": "function"
    },
    {
      "inputs": [
        {
          "name": "_cooldownPeriodInSec",
          "type": "uint256"
        },
        {
          "name": "_migrationManager",
          "type": "address"
        },
        {
          "name": "_emergencyManager",
          "type": "address"
        },
        {
          "name": "_token",
          "type": "address"
        }
      ],
      "payable": false,
      "stateMutability": "nonpayable",
      "type": "constructor"
    },
    {
      "anonymous": false,
      "inputs": [
        {
          "indexed": true,
          "name": "migrationManager",
          "type": "address"
        }
      ],
      "name": "MigrationManagerUpdated",
      "type": "event"
    },
    {
      "anonymous": false,
      "inputs": [
        {
          "indexed": true,
          "name": "stakingContract",
          "type": "address"
        }
      ],
      "name": "MigrationDestinationAdded",
      "type": "event"
    },
    {
      "anonymous": false,
      "inputs": [
        {
          "indexed": true,
          "name": "stakingContract",
          "type": "address"
        }
      ],
      "name": "MigrationDestinationRemoved",
      "type": "event"
    },
    {
      "anonymous": false,
      "inputs": [
        {
          "indexed": true,
          "name": "emergencyManager",
          "type": "address"
        }
      ],
      "name": "EmergencyManagerUpdated",
      "type": "event"
    },
    {
      "anonymous": false,
      "inputs": [],
      "name": "StoppedAcceptingNewStake",
      "type": "event"
    },
    {
      "anonymous": false,
      "inputs": [],
      "name": "ReleasedAllStakes",
      "type": "event"
    },
    {
      "anonymous": false,
      "inputs": [
        {
          "indexed": true,
          "name": "stakeOwner",
          "type": "address"
        },
        {
          "indexed": false,
          "name": "amount",
          "type": "uint256"
        },
        {
          "indexed": false,
          "name": "totalStakedAmount",
          "type": "uint256"
        }
      ],
      "name": "AcceptedMigration",
      "type": "event"
    },
    {
      "anonymous": false,
      "inputs": [
        {
          "indexed": true,
          "name": "stakeOwner",
          "type": "address"
        },
        {
          "indexed": false,
          "name": "amount",
          "type": "uint256"
        },
        {
          "indexed": false,
          "name": "totalStakedAmount",
          "type": "uint256"
        }
      ],
      "name": "Staked",
      "type": "event"
    },
    {
      "anonymous": false,
      "inputs": [
        {
          "indexed": true,
          "name": "stakeOwner",
          "type": "address"
        },
        {
          "indexed": false,
          "name": "amount",
          "type": "uint256"
        },
        {
          "indexed": false,
          "name": "totalStakedAmount",
          "type": "uint256"
        }
      ],
      "name": "Unstaked",
      "type": "event"
    },
    {
      "anonymous": false,
      "inputs": [
        {
          "indexed": true,
          "name": "stakeOwner",
          "type": "address"
        },
        {
          "indexed": false,
          "name": "amount",
          "type": "uint256"
        },
        {
          "indexed": false,
          "name": "totalStakedAmount",
          "type": "uint256"
        }
      ],
      "name": "Withdrew",
      "type": "event"
    },
    {
      "anonymous": false,
      "inputs": [
        {
          "indexed": true,
          "name": "stakeOwner",
          "type": "address"
        },
        {
          "indexed": false,
          "name": "amount",
          "type": "uint256"
        },
        {
          "indexed": false,
          "name": "totalStakedAmount",
          "type": "uint256"
        }
      ],
      "name": "Restaked",
      "type": "event"
    },
    {
      "anonymous": false,
      "inputs": [
        {
          "indexed": true,
          "name": "stakeOwner",
          "type": "address"
        },
        {
          "indexed": false,
          "name": "amount",
          "type": "uint256"
        },
        {
          "indexed": false,
          "name": "totalStakedAmount",
          "type": "uint256"
        }
      ],
      "name": "MigratedStake",
      "type": "event"
    },
    {
      "constant": true,
      "inputs": [],
      "name": "getApprovedStakingContractsLength",
      "outputs": [
        {
          "name": "",
          "type": "uint256"
        }
      ],
      "payable": false,
      "stateMutability": "view",
      "type": "function"
    }
  ],
  "bytecode": "0x60806040526006805460a860020a60ff021960a060020a60ff021990911674010000000000000000000000000000000000000000171690553480156200004457600080fd5b50604051608080620033cb833981016040908152815160208301519183015160609093015190929083838383600084116200010657604080517f08c379a000000000000000000000000000000000000000000000000000000000815260206004820152603e60248201527f5374616b696e67436f6e74726163743a3a63746f72202d20636f6f6c646f776e60448201527f20706572696f64206d7573742062652067726561746572207468616e20300000606482015290519081900360840190fd5b600160a060020a0383161515620001a457604080517f08c379a000000000000000000000000000000000000000000000000000000000815260206004820152603760248201527f5374616b696e67436f6e74726163743a3a63746f72202d206d6967726174696f60448201527f6e206d616e61676572206d757374206e6f742062652030000000000000000000606482015290519081900360840190fd5b600160a060020a03821615156200024257604080517f08c379a000000000000000000000000000000000000000000000000000000000815260206004820152603760248201527f5374616b696e67436f6e74726163743a3a63746f72202d20656d657267656e6360448201527f79206d616e61676572206d757374206e6f742062652030000000000000000000606482015290519081900360840190fd5b600160a060020a0381161515620002e057604080517f08c379a000000000000000000000000000000000000000000000000000000000815260206004820152603060248201527f5374616b696e67436f6e74726163743a3a63746f72202d204f52425320746f6b60448201527f656e206d757374206e6f74206265203000000000000000000000000000000000606482015290519081900360840190fd5b60029390935560038054600160a060020a03938416600160a060020a03199182161790915560048054928416928216929092179091556006805493909216921691909117905550505050613091806200033a6000396000f30060806040526004361061018a5763ffffffff7c0100000000000000000000000000000000000000000000000000000000600035041663025cf89f811461018f57806316934fc4146101b2578063187ac4cb146101f157806319d6a88d1461022257806320fc287d1461025257806321df0da7146102795780632e17de781461028e5780633ae73259146102a65780633ccfd60b146102bb5780634b5d1f8b146102d05780634f91440d146102e557806351d18598146102fa57806353a5b1bb1461030f5780636ef9abeb146103495780636fb974bc14610361578063826cc8fc1461038a5780638be700891461039f5780638cfc430e146103b457806396690c9e146103d55780639db3c9ee146103ea578063a53acf611461040b578063a694fc3a1461042f578063b5bab01514610447578063bb82dd1714610467578063d0532d9114610488578063d2c18f59146104a9578063df3f2f8a146104be578063e9aea8c8146104e2578063fa5b7c7014610503578063fc0c546a14610518578063ffa1ad741461052d575b600080fd5b34801561019b57600080fd5b506101b0600160a060020a0360043516610542565b005b3480156101be57600080fd5b506101d3600160a060020a036004351661075f565b60408051938452602084019290925282820152519081900360600190f35b3480156101fd57600080fd5b50610206610780565b60408051600160a060020a039092168252519081900360200190f35b34801561022e57600080fd5b506101b060048035906024803580820192908101359160443590810191013561078f565b34801561025e57600080fd5b50610267610de8565b60408051918252519081900360200190f35b34801561028557600080fd5b50610206610dee565b34801561029a57600080fd5b506101b0600435610dfe565b3480156102b257600080fd5b5061026761109f565b3480156102c757600080fd5b506101b06110a5565b3480156102dc57600080fd5b50610267611104565b3480156102f157600080fd5b506101b0611109565b34801561030657600080fd5b506102676112df565b34801561031b57600080fd5b50610330600160a060020a03600435166112e5565b6040805192835260208301919091528051918290030190f35b34801561035557600080fd5b50610206600435611331565b34801561036d57600080fd5b50610376611359565b604080519115158252519081900360200190f35b34801561039657600080fd5b506101b061137a565b3480156103ab57600080fd5b50610267611517565b3480156103c057600080fd5b506101b0600160a060020a036004351661151d565b3480156103e157600080fd5b506101b061180e565b3480156103f657600080fd5b50610376600160a060020a036004351661199b565b34801561041757600080fd5b506101b0600160a060020a03600435166024356119ad565b34801561043b57600080fd5b506101b0600435611acc565b34801561045357600080fd5b506101b06004803560248101910135611bf0565b34801561047357600080fd5b506101b0600160a060020a0360043516611d1c565b34801561049457600080fd5b506101b0600160a060020a0360043516612045565b3480156104b557600080fd5b50610206612262565b3480156104ca57600080fd5b506101b0600160a060020a0360043516602435612271565b3480156104ee57600080fd5b50610267600160a060020a03600435166128f3565b34801561050f57600080fd5b5061037661290e565b34801561052457600080fd5b50610206612930565b34801561053957600080fd5b5061026761293f565b600354600160a060020a031633146105ca576040805160e560020a62461bcd02815260206004820152603460248201527f5374616b696e67436f6e74726163743a2063616c6c6572206973206e6f74207460448201527f6865206d6967726174696f6e206d616e61676572000000000000000000000000606482015290519081900360840190fd5b600160a060020a0381161515610650576040805160e560020a62461bcd02815260206004820152603c60248201527f5374616b696e67436f6e74726163743a3a7365744d6967726174696f6e4d616e60448201527f61676572202d2061646472657373206d757374206e6f74206265203000000000606482015290519081900360840190fd5b600354600160a060020a0382811691161415610702576040805160e560020a62461bcd02815260206004820152605960248201527f5374616b696e67436f6e74726163743a3a7365744d6967726174696f6e4d616e60448201527f61676572202d2061646472657373206d75737420626520646966666572656e7460648201527f207468616e207468652063757272656e74206164647265737300000000000000608482015290519081900360a40190fd5b6003805473ffffffffffffffffffffffffffffffffffffffff1916600160a060020a0383811691909117918290556040519116907fe06b7cc06400e2218f11a21ba24cb110fd587a695a09f36d42c4f7b21566937f90600090a250565b60006020819052908152604090208054600182015460029092015490919083565b600354600160a060020a031681565b6000806000806000806000600660149054906101000a900460ff1680156107d257506006547501000000000000000000000000000000000000000000900460ff16155b151561084e576040805160e560020a62461bcd02815260206004820152602960248201527f5374616b696e67436f6e74726163743a206e6f7420616363657074696e67206e60448201527f6577207374616b65730000000000000000000000000000000000000000000000606482015290519081900360840190fd5b60008c116108f2576040805160e560020a62461bcd02815260206004820152604860248201527f5374616b696e67436f6e74726163743a3a64697374726962757465526577617260448201527f6473202d20746f74616c20616d6f756e74206d7573742062652067726561746560648201527f72207468616e2030000000000000000000000000000000000000000000000000608482015290519081900360a40190fd5b8996508795506000871180156109085750600086115b1515610984576040805160e560020a62461bcd02815260206004820152603960248201527f5374616b696e67436f6e74726163743a3a64697374726962757465526577617260448201527f6473202d206c697374732063616e277420626520656d70747900000000000000606482015290519081900360840190fd5b868614610a27576040805160e560020a62461bcd02815260206004820152604360248201527f5374616b696e67436f6e74726163743a3a64697374726962757465526577617260448201527f6473202d206c69737473206d757374206265206f66207468652073616d65207360648201527f697a650000000000000000000000000000000000000000000000000000000000608482015290519081900360a40190fd5b600654604080517f23b872dd000000000000000000000000000000000000000000000000000000008152336004820152306024820152604481018f90529051600160a060020a03909216916323b872dd916064808201926020929091908290030181600087803b158015610a9a57600080fd5b505af1158015610aae573d6000803e3d6000fd5b505050506040513d6020811015610ac457600080fd5b50511515610b42576040805160e560020a62461bcd02815260206004820152603b60248201527f5374616b696e67436f6e74726163743a3a64697374726962757465526577617260448201527f6473202d20696e73756666696369656e7420616c6c6f77616e63650000000000606482015290519081900360840190fd5b60009450600093505b86841015610d47578a8a85818110610b5f57fe5b90506020020135600160a060020a031692508888858181101515610b7f57fe5b6020029190910135925050600160a060020a0383161515610c10576040805160e560020a62461bcd02815260206004820152603b60248201527f5374616b696e67436f6e74726163743a3a64697374726962757465526577617260448201527f6473202d207374616b65206f776e65722063616e277420626520300000000000606482015290519081900360840190fd5b60008211610cb4576040805160e560020a62461bcd02815260206004820152604260248201527f5374616b696e67436f6e74726163743a3a64697374726962757465526577617260448201527f6473202d20616d6f756e74206d7573742062652067726561746572207468616e60648201527f2030000000000000000000000000000000000000000000000000000000000000608482015290519081900360a40190fd5b50600160a060020a03821660009081526020819052604090208054610cdf908363ffffffff61294416565b8155610cf1858363ffffffff61294416565b81546040805185815260208101929092528051929750600160a060020a038616927f1449c6dd7851abc30abf37f57715f492010519147cc2652fbc38202c18a6ee909281900390910190a2836001019350610b4b565b8b8514610dc4576040805160e560020a62461bcd02815260206004820152603b60248201527f5374616b696e67436f6e74726163743a3a64697374726962757465526577617260448201527f6473202d20696e636f727265637420746f74616c20616d6f756e740000000000606482015290519081900360840190fd5b600154610dd7908d63ffffffff61294416565b600155505050505050505050505050565b60025481565b600654600160a060020a03165b90565b600080808080808611610e81576040805160e560020a62461bcd02815260206004820152603860248201527f5374616b696e67436f6e74726163743a3a756e7374616b65202d20616d6f756e60448201527f74206d7573742062652067726561746572207468616e20300000000000000000606482015290519081900360840190fd5b505033600081815260208190526040902080546001820154600283015493965091945092509082861115610f4c576040805160e560020a62461bcd028152602060048201526044602482018190527f5374616b696e67436f6e74726163743a3a756e7374616b65202d2063616e2774908201527f20756e7374616b65206d6f7265207468616e207468652063757272656e74207360648201527f74616b6500000000000000000000000000000000000000000000000000000000608482015290519081900360a40190fd5b811580610f5857504281115b1515610ffa576040805160e560020a62461bcd02815260206004820152605560248201527f5374616b696e67436f6e74726163743a3a756e7374616b65202d20756e61626c60448201527f6520746f20756e7374616b65207768656e2074686572652061726520746f6b6560648201527f6e732070656e64696e67207769746864726177616c0000000000000000000000608482015290519081900360a40190fd5b61100a838763ffffffff61296116565b845561101c828763ffffffff61294416565b600185015560025461103590429063ffffffff61294416565b600285015560015461104d908763ffffffff61296116565b60015583546040805188815260208101929092528051600160a060020a038816927f7fc4727e062e336010f2c282598ef5f14facb3de68cf8195c2f23e1454b2b74e92908290030190a2505050505050565b60015481565b336000806110b283612978565b9150915082600160a060020a03167fadec52fcd1408589179b85e44b434374db078b4eaf793e7d1a1bb0ae4ecfeee58383604051808381526020018281526020019250505060405180910390a2505050565b600a81565b6000806000600660149054906101000a900460ff16801561114657506006547501000000000000000000000000000000000000000000900460ff16155b15156111c2576040805160e560020a62461bcd02815260206004820152602960248201527f5374616b696e67436f6e74726163743a206e6f7420616363657074696e67206e60448201527f6577207374616b65730000000000000000000000000000000000000000000000606482015290519081900360840190fd5b5050336000818152602081905260408120600181015492935091908111611259576040805160e560020a62461bcd02815260206004820152602d60248201527f5374616b696e67436f6e74726163743a3a72657374616b65202d206e6f20756e60448201527f7374616b656420746f6b656e7300000000000000000000000000000000000000606482015290519081900360840190fd5b815461126b908263ffffffff61294416565b825560006001808401829055600284019190915554611290908263ffffffff61294416565b60015581546040805183815260208101929092528051600160a060020a038616927fa217c421e0e9357b7b1815d752952b142ddc0e23f9f14ecb8233f8f83d563c4d92908290030190a2505050565b60015490565b6000806112f0612ffc565b505050600160a060020a0316600090815260208181526040918290208251606081018452815481526001820154928101839052600290910154920182905291565b600580548290811061133f57fe5b600091825260209091200154600160a060020a0316905081565b60065474010000000000000000000000000000000000000000900460ff1681565b600454600160a060020a03163314611402576040805160e560020a62461bcd02815260206004820152603460248201527f5374616b696e67436f6e74726163743a2063616c6c6572206973206e6f74207460448201527f686520656d657267656e6379206d616e61676572000000000000000000000000606482015290519081900360840190fd5b60065474010000000000000000000000000000000000000000900460ff16801561144857506006547501000000000000000000000000000000000000000000900460ff16155b15156114c4576040805160e560020a62461bcd02815260206004820152602960248201527f5374616b696e67436f6e74726163743a206e6f7420616363657074696e67206e60448201527f6577207374616b65730000000000000000000000000000000000000000000000606482015290519081900360840190fd5b600680547fffffffffffffffffffffff00ffffffffffffffffffffffffffffffffffffffff1690556040517fbdbd7b3d2870b142b863f835ac06bf8aa59717f4295c2d0f4d9636fb4e5bb41890600090a1565b60055490565b6003546000908190600160a060020a031633146115aa576040805160e560020a62461bcd02815260206004820152603460248201527f5374616b696e67436f6e74726163743a2063616c6c6572206973206e6f74207460448201527f6865206d6967726174696f6e206d616e61676572000000000000000000000000606482015290519081900360840190fd5b600160a060020a0383161515611656576040805160e560020a62461bcd02815260206004820152604360248201527f5374616b696e67436f6e74726163743a3a72656d6f76654d6967726174696f6e60448201527f44657374696e6174696f6e202d2061646472657373206d757374206e6f74206260648201527f6520300000000000000000000000000000000000000000000000000000000000608482015290519081900360a40190fd5b61165f83612d2f565b91509150801515611706576040805160e560020a62461bcd02815260206004820152604c60248201527f5374616b696e67436f6e74726163743a3a72656d6f76654d6967726174696f6e60448201527f44657374696e6174696f6e202d207374616b696e6720636f6e7472616374206460648201527f6f65736e27742065786973740000000000000000000000000000000000000000608482015290519081900360a40190fd5b6005546000190182101561178d57600580546001840190811061172557fe5b60009182526020909120015460058054600160a060020a03909216918490811061174b57fe5b6000918252602090912001805473ffffffffffffffffffffffffffffffffffffffff1916600160a060020a039290921691909117905560019190910190611706565b600580548390811061179b57fe5b6000918252602090912001805473ffffffffffffffffffffffffffffffffffffffff1916905560058054906117d490600019830161301e565b50604051600160a060020a038416907f8510e225439ac2e1e619dffc86503855de99ded73d69499cadb36719ab7ac35490600090a2505050565b600454600160a060020a03163314611896576040805160e560020a62461bcd02815260206004820152603460248201527f5374616b696e67436f6e74726163743a2063616c6c6572206973206e6f74207460448201527f686520656d657267656e6379206d616e61676572000000000000000000000000606482015290519081900360840190fd5b6006547501000000000000000000000000000000000000000000900460ff1615611930576040805160e560020a62461bcd02815260206004820152602560248201527f5374616b696e67436f6e74726163743a2072656c656173696e6720616c6c207360448201527f74616b6573000000000000000000000000000000000000000000000000000000606482015290519081900360840190fd5b600680547fffffffffffffffffffff00ffffffffffffffffffffffffffffffffffffffffff1675010000000000000000000000000000000000000000001790556040517f44562777dd33a811a41558cd3e94176385d383dfbef2e7daf1f568fb2a3a50b490600090a1565b60006119a682612d2f565b9392505050565b60065460009074010000000000000000000000000000000000000000900460ff1680156119f657506006547501000000000000000000000000000000000000000000900460ff16155b1515611a72576040805160e560020a62461bcd02815260206004820152602960248201527f5374616b696e67436f6e74726163743a206e6f7420616363657074696e67206e60448201527f6577207374616b65730000000000000000000000000000000000000000000000606482015290519081900360840190fd5b611a7c8383612d92565b905082600160a060020a03167f81db9529cc03da6115de53b27832a9a0dde26bd573e99f76b23960f6be62b0c98383604051808381526020018281526020019250505060405180910390a2505050565b600654600090819074010000000000000000000000000000000000000000900460ff168015611b1757506006547501000000000000000000000000000000000000000000900460ff16155b1515611b93576040805160e560020a62461bcd02815260206004820152602960248201527f5374616b696e67436f6e74726163743a206e6f7420616363657074696e67206e60448201527f6577207374616b65730000000000000000000000000000000000000000000000606482015290519081900360840190fd5b339150611ba08284612d92565b905081600160a060020a03167f1449c6dd7851abc30abf37f57715f492010519147cc2652fbc38202c18a6ee908483604051808381526020018281526020019250505060405180910390a2505050565b6000806000806000600660159054906101000a900460ff161515611c84576040805160e560020a62461bcd02815260206004820152602960248201527f5374616b696e67436f6e74726163743a206e6f742072656c656173696e67206160448201527f6c6c207374616b65730000000000000000000000000000000000000000000000606482015290519081900360840190fd5b859450600093505b84841015611d1357868685818110611ca057fe5b90506020020135600160a060020a03169250611cbb83612978565b9150915082600160a060020a03167fadec52fcd1408589179b85e44b434374db078b4eaf793e7d1a1bb0ae4ecfeee58383604051808381526020018281526020019250505060405180910390a2836001019350611c8c565b50505050505050565b600354600090600160a060020a03163314611da7576040805160e560020a62461bcd02815260206004820152603460248201527f5374616b696e67436f6e74726163743a2063616c6c6572206973206e6f74207460448201527f6865206d6967726174696f6e206d616e61676572000000000000000000000000606482015290519081900360840190fd5b600160a060020a0382161515611e2d576040805160e560020a62461bcd02815260206004820152602481018290527f5374616b696e67436f6e74726163743a3a6164644d6967726174696f6e44657360448201527f74696e6174696f6e202d2061646472657373206d757374206e6f742062652030606482015290519081900360840190fd5b600554600a60019091011115611ed9576040805160e560020a62461bcd02815260206004820152604b60248201527f5374616b696e67436f6e74726163743a3a6164644d6967726174696f6e44657360448201527f74696e6174696f6e202d2063616e277420616464206d6f7265207374616b696e60648201527f6720636f6e747261637473000000000000000000000000000000000000000000608482015290519081900360a40190fd5b5060005b600554811015611fbf5781600160a060020a0316600582815481101515611f0057fe5b600091825260209091200154600160a060020a03161415611fb7576040805160e560020a62461bcd02815260206004820152605160248201527f5374616b696e67436f6e74726163743a3a6164644d6967726174696f6e44657360448201527f74696e6174696f6e202d2063616e2774206164642061206475706c696361746560648201527f207374616b696e6720636f6e7472616374000000000000000000000000000000608482015290519081900360a40190fd5b600101611edd565b6005805460018101825560009182527f036b6384b5eca791c62761152d0c79bb0604c104a5fb6f4eb0703f3154bb3db001805473ffffffffffffffffffffffffffffffffffffffff1916600160a060020a03851690811790915560405190917fc580726bc117ebe54aaf7f71f680c52208316d7dafdd4e165a4e402c032bbc6091a25050565b600454600160a060020a031633146120cd576040805160e560020a62461bcd02815260206004820152603460248201527f5374616b696e67436f6e74726163743a2063616c6c6572206973206e6f74207460448201527f686520656d657267656e6379206d616e61676572000000000000000000000000606482015290519081900360840190fd5b600160a060020a0381161515612153576040805160e560020a62461bcd02815260206004820152603c60248201527f5374616b696e67436f6e74726163743a3a736574456d657267656e63794d616e60448201527f61676572202d2061646472657373206d757374206e6f74206265203000000000606482015290519081900360840190fd5b600454600160a060020a0382811691161415612205576040805160e560020a62461bcd02815260206004820152605960248201527f5374616b696e67436f6e74726163743a3a736574456d657267656e63794d616e60448201527f61676572202d2061646472657373206d75737420626520646966666572656e7460648201527f207468616e207468652063757272656e74206164647265737300000000000000608482015290519081900360a40190fd5b6004805473ffffffffffffffffffffffffffffffffffffffff1916600160a060020a0383811691909117918290556040519116907fabe3ea374ec13aa47e312b4ed42fb5e9d47324c0d167dc4836aa048b8e5279ae90600090a250565b600454600160a060020a031681565b600654600090819081907501000000000000000000000000000000000000000000900460ff1615612312576040805160e560020a62461bcd02815260206004820152602560248201527f5374616b696e67436f6e74726163743a2072656c656173696e6720616c6c207360448201527f74616b6573000000000000000000000000000000000000000000000000000000606482015290519081900360840190fd5b61231b8561199b565b15156123bd576040805160e560020a62461bcd02815260206004820152604c60248201527f5374616b696e67436f6e74726163743a3a6d6967726174655374616b6564546f60448201527f6b656e73202d206d6967726174696f6e2064657374696e6174696f6e2077617360648201527f6e277420617070726f7665640000000000000000000000000000000000000000608482015290519081900360a40190fd5b60008411612462576040805160e560020a62461bcd028152602060048201526044602482018190527f5374616b696e67436f6e74726163743a3a6d6967726174655374616b6564546f908201527f6b656e73202d20616d6f756e74206d757374206265206772656174657220746860648201527f616e203000000000000000000000000000000000000000000000000000000000608482015290519081900360a40190fd5b50503360008181526020819052604081208054929350919081116124f6576040805160e560020a62461bcd02815260206004820152603760248201527f5374616b696e67436f6e74726163743a3a6d6967726174655374616b6564546f60448201527f6b656e73202d206e6f207374616b656420746f6b656e73000000000000000000606482015290519081900360840190fd5b8084111561259a576040805160e560020a62461bcd02815260206004820152604a60248201527f5374616b696e67436f6e74726163743a3a6d6967726174655374616b6564546f60448201527f6b656e73202d20616d6f756e742065786365656473207374616b656420746f6b60648201527f656e2062616c616e636500000000000000000000000000000000000000000000608482015290519081900360a40190fd5b6125aa818563ffffffff61296116565b82556001546125bf908563ffffffff61296116565b600155600654604080517f21df0da70000000000000000000000000000000000000000000000000000000081529051600160a060020a03928316928816916321df0da79160048083019260209291908290030181600087803b15801561262457600080fd5b505af1158015612638573d6000803e3d6000fd5b505050506040513d602081101561264e57600080fd5b5051600160a060020a0316146126fa576040805160e560020a62461bcd02815260206004820152604560248201527f5374616b696e67436f6e74726163743a3a6d6967726174655374616b6564546f60448201527f6b656e73202d207374616b656420746f6b656e73206d7573742062652074686560648201527f2073616d65000000000000000000000000000000000000000000000000000000608482015290519081900360a40190fd5b600654604080517f095ea7b3000000000000000000000000000000000000000000000000000000008152600160a060020a038881166004830152602482018890529151919092169163095ea7b39160448083019260209291908290030181600087803b15801561276957600080fd5b505af115801561277d573d6000803e3d6000fd5b505050506040513d602081101561279357600080fd5b50511515612811576040805160e560020a62461bcd02815260206004820152602481018290527f5374616b696e67436f6e74726163743a3a6d6967726174655374616b6564546f60448201527f6b656e73202d20636f756c646e277420617070726f7665207472616e73666572606482015290519081900360840190fd5b81546040805186815260208101929092528051600160a060020a038616927f9571cc7fab3ada3041abcbb4d26ead1cf5757f940f1096da3713584afc4b75cb92908290030190a284600160a060020a031663a53acf6184866040518363ffffffff167c01000000000000000000000000000000000000000000000000000000000281526004018083600160a060020a0316600160a060020a0316815260200182815260200192505050600060405180830381600087803b1580156128d457600080fd5b505af11580156128e8573d6000803e3d6000fd5b505050505050505050565b600160a060020a031660009081526020819052604090205490565b6006547501000000000000000000000000000000000000000000900460ff1681565b600654600160a060020a031681565b600181565b60008282018381101561295657600080fd5b8091505b5092915050565b6000808383111561297157600080fd5b5050900390565b60008080600160a060020a0384161515612a02576040805160e560020a62461bcd02815260206004820152603260248201527f5374616b696e67436f6e74726163743a3a7769746864726177202d207374616b60448201527f65206f776e65722063616e277420626520300000000000000000000000000000606482015290519081900360840190fd5b505050600160a060020a0381166000908152602081905260409020805460018201546006549092907501000000000000000000000000000000000000000000900460ff161515612b515760008311612aca576040805160e560020a62461bcd02815260206004820152602e60248201527f5374616b696e67436f6e74726163743a3a7769746864726177202d206e6f207560448201527f6e7374616b656420746f6b656e73000000000000000000000000000000000000606482015290519081900360840190fd5b6002810154421015612b4c576040805160e560020a62461bcd02815260206004820152603860248201527f5374616b696e67436f6e74726163743a3a7769746864726177202d20746f6b6560448201527f6e7320617265207374696c6c20696e20636f6f6c646f776e0000000000000000606482015290519081900360840190fd5b612c00565b612b61838363ffffffff61294416565b925060008311612be1576040805160e560020a62461bcd02815260206004820152603860248201527f5374616b696e67436f6e74726163743a3a7769746864726177202d206e6f207360448201527f74616b6564206f7220756e7374616b656420746f6b656e730000000000000000606482015290519081900360840190fd5b60008155600154612bf8908363ffffffff61296116565b600155600091505b60006001820181905560028201819055600654604080517fa9059cbb000000000000000000000000000000000000000000000000000000008152600160a060020a038881166004830152602482018890529151919092169263a9059cbb92604480820193602093909283900390910190829087803b158015612c8157600080fd5b505af1158015612c95573d6000803e3d6000fd5b505050506040513d6020811015612cab57600080fd5b50511515612d29576040805160e560020a62461bcd02815260206004820152603360248201527f5374616b696e67436f6e74726163743a3a7769746864726177202d20636f756c60448201527f646e2774207472616e73666572207374616b6500000000000000000000000000606482015290519081900360840190fd5b50915091565b60055460009081905b80831015612d885783600160a060020a0316600584815481101515612d5957fe5b600091825260209091200154600160a060020a03161415612d7d5760019150612d29565b826001019250612d38565b6000915050915091565b600080600160a060020a0384161515612e1b576040805160e560020a62461bcd02815260206004820152602f60248201527f5374616b696e67436f6e74726163743a3a7374616b65202d207374616b65206f60448201527f776e65722063616e277420626520300000000000000000000000000000000000606482015290519081900360840190fd5b60008311612e99576040805160e560020a62461bcd02815260206004820152603660248201527f5374616b696e67436f6e74726163743a3a7374616b65202d20616d6f756e742060448201527f6d7573742062652067726561746572207468616e203000000000000000000000606482015290519081900360840190fd5b50600160a060020a03831660009081526020819052604090208054612ec4908463ffffffff61294416565b8155600154612ed9908463ffffffff61294416565b6001558054600654604080517f23b872dd000000000000000000000000000000000000000000000000000000008152336004820152306024820152604481018790529051929450600160a060020a03909116916323b872dd916064808201926020929091908290030181600087803b158015612f5457600080fd5b505af1158015612f68573d6000803e3d6000fd5b505050506040513d6020811015612f7e57600080fd5b5051151561295a576040805160e560020a62461bcd02815260206004820152602f60248201527f5374616b696e67436f6e74726163743a3a7374616b65202d20696e737566666960448201527f6369656e7420616c6c6f77616e63650000000000000000000000000000000000606482015290519081900360840190fd5b6060604051908101604052806000815260200160008152602001600081525090565b81548183558181111561304257600083815260209020613042918101908301613047565b505050565b610dfb91905b80821115613061576000815560010161304d565b50905600a165627a7a72305820ad74c139ea2df7592c138b65253719c18bd646683537e918f120984c12bc112a0029",
  "source": "pragma solidity 0.4.26;\n\nimport \"../StakingContract.sol\";\n\n/// @title A test wrapper for StakingContract.\ncontract StakingContractWrapper is StakingContract {\n    constructor(uint256 _cooldownPeriodInSec, address _migrationManager, address _emergencyManager,\n        IERC20 _token) public StakingContract(_cooldownPeriodInSec, _migrationManager, _emergencyManager, _token) {\n    }\n\n    function getApprovedStakingContractsLength() external view returns (uint256) {\n        return approvedStakingContracts.length;\n    }\n}\n",
  "sourcePath": "/Users/leonid/work/orbs/orbs-staking-contract/contracts/tests/StakingContractWrapper.sol",
  "compiler": {
    "name": "solc",
    "version": "0.4.26+commit.4563c3fc.Emscripten.clang"
  },
  "schemaVersion": "3.0.16",
  "updatedAt": "2019-12-03T15:11:32.699Z",
  "devdoc": {
    "methods": {
      "acceptMigration(address,uint256)": {
        "details": "Stakes ORBS tokens on behalf of msg.sender. This method assumes that the user has already approved at least the required amount using ERC20 approve.",
        "params": {
          "_amount": "uint256 The amount of tokens to stake.",
          "_stakeOwner": "address The specified stake owner."
        }
      },
      "addMigrationDestination(address)": {
        "details": "Adds a new contract to the list of approved staking contracts migration destinations.",
        "params": {
          "_newStakingContract": "IMigratableStakingContract The new contract to add."
        }
      },
      "distributeRewards(uint256,address[],uint256[])": {
        "details": "Distributes staking rewards to a list of addresses by directly adding rewards to their stakes. This method assumes that the user has already approved at least the required amount using ERC20 approve. Since this is a convenience method, we aren't concerned about reaching block gas limit by using large lists. We assume that callers will be able to properly batch/paginate their requests.",
        "params": {
          "_amounts": "uint256[] The amounts of the rewards.",
          "_stakeOwners": "address[] The addresses of the stake owners.",
          "_totalAmount": "uint256 The total amount of rewards to distributes."
        }
      },
      "getStakeBalanceOf(address)": {
        "details": "Returns the stake of the specified stake owner (excluding unstaked tokens).",
        "params": {
          "_stakeOwner": "address The address to check."
        },
        "return": "uint256 The stake of the stake owner."
      },
      "getToken()": {
        "details": "Returns the address of the underlying staked token.",
        "return": "IERC20 The address of the token."
      },
      "getTotalStakedTokens()": {
        "details": "Returns the total amount staked tokens (excluding unstaked tokens).",
        "return": "uint256 The total staked tokens of all stake owners."
      },
      "getUnstakeStatus(address)": {
        "details": "Returns the time that the cooldown period ends (or ended) and the amount of tokens to be released.",
        "params": {
          "_stakeOwner": "address The address to check."
        },
        "return": "cooldownAmount uint256 The total tokens in cooldown.cooldownEndTime uint256 The time when the cooldown period ends (in seconds)."
      },
      "isApprovedStakingContract(address)": {
        "details": "Returns whether a specific staking contract was approved as a migration destination.",
        "params": {
          "_stakingContract": "IMigratableStakingContract The staking contract to look for."
        },
        "return": "exists bool The approval status."
      },
      "migrateStakedTokens(address,uint256)": {
        "details": "Migrates the stake of msg.sender from this staking contract to a new approved staking contract.",
        "params": {
          "_amount": "uint256 The amount of tokens to migrate.",
          "_newStakingContract": "IMigratableStakingContract The new staking contract which supports stake migration."
        }
      },
      "releaseAllStakes()": {
        "details": "Requests the contract to release all stakes."
      },
      "removeMigrationDestination(address)": {
        "details": "Removes a contract from the list of approved staking contracts migration destinations.",
        "params": {
          "_stakingContract": "IMigratableStakingContract The contract to remove."
        }
      },
      "restake()": {
        "details": "Restakes unstaked ORBS tokens (in or after cooldown) for msg.sender."
      },
      "setEmergencyManager(address)": {
        "details": "Sets the address of the emergency manager.",
        "params": {
          "_newEmergencyManager": "address The address of the new emergency manager."
        }
      },
      "setMigrationManager(address)": {
        "details": "Sets the address of the migration manager.",
        "params": {
          "_newMigrationManager": "address The address of the new migration manager."
        }
      },
      "stake(uint256)": {
        "details": "Stakes ORBS tokens on behalf of msg.sender. This method assumes that the user has already approved at least the required amount using ERC20 approve.",
        "params": {
          "_amount": "uint256 The amount of tokens to stake."
        }
      },
      "stopAcceptingNewStakes()": {
        "details": "Requests the contract to stop accepting new staking requests."
      },
      "unstake(uint256)": {
        "details": "Unstakes ORBS tokens from msg.sender. If successful, this will start the cooldown period, after which msg.sender would be able to withdraw all of his tokens.",
        "params": {
          "_amount": "uint256 The amount of tokens to unstake."
        }
      },
      "withdraw()": {
        "details": "Requests to withdraw all of staked ORBS tokens back to msg.sender. Stake owners can withdraw their ORBS tokens only after previously unstaking them and after the cooldown period has passed (unless the contract was requested to release all stakes)."
      },
      "withdrawReleasedStakes(address[])": {
        "details": "Requests withdraw of released tokens of a list of addresses.",
        "params": {
          "_stakeOwners": "address[] The addresses of the stake owners."
        }
      }
    },
    "title": "A test wrapper for StakingContract."
  },
  "userdoc": {
    "methods": {}
  }
}