{
  "contractName": "StakingContract",
  "abi": [
    {
      "constant": true,
      "inputs": [
        {
          "name": "",
          "type": "address"
        }
      ],
      "name": "stakes",
      "outputs": [
        {
          "name": "amount",
          "type": "uint256"
        },
        {
          "name": "cooldownAmount",
          "type": "uint256"
        },
        {
          "name": "cooldownEndTime",
          "type": "uint256"
        }
      ],
      "payable": false,
      "stateMutability": "view",
      "type": "function"
    },
    {
      "constant": true,
      "inputs": [],
      "name": "migrationManager",
      "outputs": [
        {
          "name": "",
          "type": "address"
        }
      ],
      "payable": false,
      "stateMutability": "view",
      "type": "function"
    },
    {
      "constant": true,
      "inputs": [],
      "name": "cooldownPeriodInSec",
      "outputs": [
        {
          "name": "",
          "type": "uint256"
        }
      ],
      "payable": false,
      "stateMutability": "view",
      "type": "function"
    },
    {
      "constant": true,
      "inputs": [],
      "name": "totalStakedTokens",
      "outputs": [
        {
          "name": "",
          "type": "uint256"
        }
      ],
      "payable": false,
      "stateMutability": "view",
      "type": "function"
    },
    {
      "constant": true,
      "inputs": [],
      "name": "MAX_APPROVED_STAKING_CONTRACTS",
      "outputs": [
        {
          "name": "",
          "type": "uint256"
        }
      ],
      "payable": false,
      "stateMutability": "view",
      "type": "function"
    },
    {
      "constant": true,
      "inputs": [
        {
          "name": "",
          "type": "uint256"
        }
      ],
      "name": "approvedStakingContracts",
      "outputs": [
        {
          "name": "",
          "type": "address"
        }
      ],
      "payable": false,
      "stateMutability": "view",
      "type": "function"
    },
    {
      "constant": true,
      "inputs": [],
      "name": "acceptingNewStakes",
      "outputs": [
        {
          "name": "",
          "type": "bool"
        }
      ],
      "payable": false,
      "stateMutability": "view",
      "type": "function"
    },
    {
      "constant": true,
      "inputs": [],
      "name": "emergencyManager",
      "outputs": [
        {
          "name": "",
          "type": "address"
        }
      ],
      "payable": false,
      "stateMutability": "view",
      "type": "function"
    },
    {
      "constant": true,
      "inputs": [],
      "name": "releasingAllStakes",
      "outputs": [
        {
          "name": "",
          "type": "bool"
        }
      ],
      "payable": false,
      "stateMutability": "view",
      "type": "function"
    },
    {
      "constant": true,
      "inputs": [],
      "name": "token",
      "outputs": [
        {
          "name": "",
          "type": "address"
        }
      ],
      "payable": false,
      "stateMutability": "view",
      "type": "function"
    },
    {
      "constant": true,
      "inputs": [],
      "name": "VERSION",
      "outputs": [
        {
          "name": "",
          "type": "uint256"
        }
      ],
      "payable": false,
      "stateMutability": "view",
      "type": "function"
    },
    {
      "inputs": [
        {
          "name": "_cooldownPeriodInSec",
          "type": "uint256"
        },
        {
          "name": "_migrationManager",
          "type": "address"
        },
        {
          "name": "_emergencyManager",
          "type": "address"
        },
        {
          "name": "_token",
          "type": "address"
        }
      ],
      "payable": false,
      "stateMutability": "nonpayable",
      "type": "constructor"
    },
    {
      "anonymous": false,
      "inputs": [
        {
          "indexed": true,
          "name": "migrationManager",
          "type": "address"
        }
      ],
      "name": "MigrationManagerUpdated",
      "type": "event"
    },
    {
      "anonymous": false,
      "inputs": [
        {
          "indexed": true,
          "name": "stakingContract",
          "type": "address"
        }
      ],
      "name": "MigrationDestinationAdded",
      "type": "event"
    },
    {
      "anonymous": false,
      "inputs": [
        {
          "indexed": true,
          "name": "stakingContract",
          "type": "address"
        }
      ],
      "name": "MigrationDestinationRemoved",
      "type": "event"
    },
    {
      "anonymous": false,
      "inputs": [
        {
          "indexed": true,
          "name": "emergencyManager",
          "type": "address"
        }
      ],
      "name": "EmergencyManagerUpdated",
      "type": "event"
    },
    {
      "anonymous": false,
      "inputs": [],
      "name": "StoppedAcceptingNewStake",
      "type": "event"
    },
    {
      "anonymous": false,
      "inputs": [],
      "name": "ReleasedAllStakes",
      "type": "event"
    },
    {
      "anonymous": false,
      "inputs": [
        {
          "indexed": true,
          "name": "stakeOwner",
          "type": "address"
        },
        {
          "indexed": false,
          "name": "amount",
          "type": "uint256"
        },
        {
          "indexed": false,
          "name": "totalStakedAmount",
          "type": "uint256"
        }
      ],
      "name": "AcceptedMigration",
      "type": "event"
    },
    {
      "anonymous": false,
      "inputs": [
        {
          "indexed": true,
          "name": "stakeOwner",
          "type": "address"
        },
        {
          "indexed": false,
          "name": "amount",
          "type": "uint256"
        },
        {
          "indexed": false,
          "name": "totalStakedAmount",
          "type": "uint256"
        }
      ],
      "name": "Staked",
      "type": "event"
    },
    {
      "anonymous": false,
      "inputs": [
        {
          "indexed": true,
          "name": "stakeOwner",
          "type": "address"
        },
        {
          "indexed": false,
          "name": "amount",
          "type": "uint256"
        },
        {
          "indexed": false,
          "name": "totalStakedAmount",
          "type": "uint256"
        }
      ],
      "name": "Unstaked",
      "type": "event"
    },
    {
      "anonymous": false,
      "inputs": [
        {
          "indexed": true,
          "name": "stakeOwner",
          "type": "address"
        },
        {
          "indexed": false,
          "name": "amount",
          "type": "uint256"
        },
        {
          "indexed": false,
          "name": "totalStakedAmount",
          "type": "uint256"
        }
      ],
      "name": "Withdrew",
      "type": "event"
    },
    {
      "anonymous": false,
      "inputs": [
        {
          "indexed": true,
          "name": "stakeOwner",
          "type": "address"
        },
        {
          "indexed": false,
          "name": "amount",
          "type": "uint256"
        },
        {
          "indexed": false,
          "name": "totalStakedAmount",
          "type": "uint256"
        }
      ],
      "name": "Restaked",
      "type": "event"
    },
    {
      "anonymous": false,
      "inputs": [
        {
          "indexed": true,
          "name": "stakeOwner",
          "type": "address"
        },
        {
          "indexed": false,
          "name": "amount",
          "type": "uint256"
        },
        {
          "indexed": false,
          "name": "totalStakedAmount",
          "type": "uint256"
        }
      ],
      "name": "MigratedStake",
      "type": "event"
    },
    {
      "constant": false,
      "inputs": [
        {
          "name": "_newMigrationManager",
          "type": "address"
        }
      ],
      "name": "setMigrationManager",
      "outputs": [],
      "payable": false,
      "stateMutability": "nonpayable",
      "type": "function"
    },
    {
      "constant": false,
      "inputs": [
        {
          "name": "_newEmergencyManager",
          "type": "address"
        }
      ],
      "name": "setEmergencyManager",
      "outputs": [],
      "payable": false,
      "stateMutability": "nonpayable",
      "type": "function"
    },
    {
      "constant": false,
      "inputs": [
        {
          "name": "_newStakingContract",
          "type": "address"
        }
      ],
      "name": "addMigrationDestination",
      "outputs": [],
      "payable": false,
      "stateMutability": "nonpayable",
      "type": "function"
    },
    {
      "constant": false,
      "inputs": [
        {
          "name": "_stakingContract",
          "type": "address"
        }
      ],
      "name": "removeMigrationDestination",
      "outputs": [],
      "payable": false,
      "stateMutability": "nonpayable",
      "type": "function"
    },
    {
      "constant": false,
      "inputs": [
        {
          "name": "_amount",
          "type": "uint256"
        }
      ],
      "name": "unstake",
      "outputs": [],
      "payable": false,
      "stateMutability": "nonpayable",
      "type": "function"
    },
    {
      "constant": false,
      "inputs": [],
      "name": "restake",
      "outputs": [],
      "payable": false,
      "stateMutability": "nonpayable",
      "type": "function"
    },
    {
      "constant": false,
      "inputs": [
        {
          "name": "_stakeOwner",
          "type": "address"
        },
        {
          "name": "_amount",
          "type": "uint256"
        }
      ],
      "name": "acceptMigration",
      "outputs": [],
      "payable": false,
      "stateMutability": "nonpayable",
      "type": "function"
    },
    {
      "constant": false,
      "inputs": [
        {
          "name": "_newStakingContract",
          "type": "address"
        },
        {
          "name": "_amount",
          "type": "uint256"
        }
      ],
      "name": "migrateStakedTokens",
      "outputs": [],
      "payable": false,
      "stateMutability": "nonpayable",
      "type": "function"
    },
    {
      "constant": false,
      "inputs": [
        {
          "name": "_totalAmount",
          "type": "uint256"
        },
        {
          "name": "_stakeOwners",
          "type": "address[]"
        },
        {
          "name": "_amounts",
          "type": "uint256[]"
        }
      ],
      "name": "distributeRewards",
      "outputs": [],
      "payable": false,
      "stateMutability": "nonpayable",
      "type": "function"
    },
    {
      "constant": true,
      "inputs": [
        {
          "name": "_stakeOwner",
          "type": "address"
        }
      ],
      "name": "getStakeBalanceOf",
      "outputs": [
        {
          "name": "",
          "type": "uint256"
        }
      ],
      "payable": false,
      "stateMutability": "view",
      "type": "function"
    },
    {
      "constant": true,
      "inputs": [],
      "name": "getTotalStakedTokens",
      "outputs": [
        {
          "name": "",
          "type": "uint256"
        }
      ],
      "payable": false,
      "stateMutability": "view",
      "type": "function"
    },
    {
      "constant": true,
      "inputs": [
        {
          "name": "_stakeOwner",
          "type": "address"
        }
      ],
      "name": "getUnstakeStatus",
      "outputs": [
        {
          "name": "cooldownAmount",
          "type": "uint256"
        },
        {
          "name": "cooldownEndTime",
          "type": "uint256"
        }
      ],
      "payable": false,
      "stateMutability": "view",
      "type": "function"
    },
    {
      "constant": true,
      "inputs": [],
      "name": "getToken",
      "outputs": [
        {
          "name": "",
          "type": "address"
        }
      ],
      "payable": false,
      "stateMutability": "view",
      "type": "function"
    },
    {
      "constant": false,
      "inputs": [],
      "name": "stopAcceptingNewStakes",
      "outputs": [],
      "payable": false,
      "stateMutability": "nonpayable",
      "type": "function"
    },
    {
      "constant": false,
      "inputs": [],
      "name": "releaseAllStakes",
      "outputs": [],
      "payable": false,
      "stateMutability": "nonpayable",
      "type": "function"
    },
    {
      "constant": false,
      "inputs": [
        {
          "name": "_stakeOwners",
          "type": "address[]"
        }
      ],
      "name": "withdrawReleasedStakes",
      "outputs": [],
      "payable": false,
      "stateMutability": "nonpayable",
      "type": "function"
    },
    {
      "constant": true,
      "inputs": [
        {
          "name": "_stakingContract",
          "type": "address"
        }
      ],
      "name": "isApprovedStakingContract",
      "outputs": [
        {
          "name": "exists",
          "type": "bool"
        }
      ],
      "payable": false,
      "stateMutability": "view",
      "type": "function"
    },
    {
      "constant": false,
      "inputs": [
        {
          "name": "_amount",
          "type": "uint256"
        }
      ],
      "name": "stake",
      "outputs": [],
      "payable": false,
      "stateMutability": "nonpayable",
      "type": "function"
    },
    {
      "constant": false,
      "inputs": [],
      "name": "withdraw",
      "outputs": [],
      "payable": false,
      "stateMutability": "nonpayable",
      "type": "function"
    }
  ],
  "bytecode": "0x60806040526006805460a860020a60ff021960a060020a60ff021990911674010000000000000000000000000000000000000000171690553480156200004457600080fd5b506040516080806200339a8339810160409081528151602083015191830151606090930151909290600084116200010257604080517f08c379a000000000000000000000000000000000000000000000000000000000815260206004820152603e60248201527f5374616b696e67436f6e74726163743a3a63746f72202d20636f6f6c646f776e60448201527f20706572696f64206d7573742062652067726561746572207468616e20300000606482015290519081900360840190fd5b600160a060020a0383161515620001a057604080517f08c379a000000000000000000000000000000000000000000000000000000000815260206004820152603760248201527f5374616b696e67436f6e74726163743a3a63746f72202d206d6967726174696f60448201527f6e206d616e61676572206d757374206e6f742062652030000000000000000000606482015290519081900360840190fd5b600160a060020a03821615156200023e57604080517f08c379a000000000000000000000000000000000000000000000000000000000815260206004820152603760248201527f5374616b696e67436f6e74726163743a3a63746f72202d20656d657267656e6360448201527f79206d616e61676572206d757374206e6f742062652030000000000000000000606482015290519081900360840190fd5b600160a060020a0381161515620002dc57604080517f08c379a000000000000000000000000000000000000000000000000000000000815260206004820152603060248201527f5374616b696e67436f6e74726163743a3a63746f72202d204f52425320746f6b60448201527f656e206d757374206e6f74206265203000000000000000000000000000000000606482015290519081900360840190fd5b60029390935560038054600160a060020a0319908116600160a060020a039485161790915560048054821692841692909217909155600680549091169190921617905561306b806200032f6000396000f30060806040526004361061017f5763ffffffff7c0100000000000000000000000000000000000000000000000000000000600035041663025cf89f811461018457806316934fc4146101a7578063187ac4cb146101e657806319d6a88d1461021757806320fc287d1461024757806321df0da71461026e5780632e17de78146102835780633ae732591461029b5780633ccfd60b146102b05780634b5d1f8b146102c55780634f91440d146102da57806351d18598146102ef57806353a5b1bb146103045780636ef9abeb1461033e5780636fb974bc14610356578063826cc8fc1461037f5780638cfc430e1461039457806396690c9e146103b55780639db3c9ee146103ca578063a53acf61146103eb578063a694fc3a1461040f578063b5bab01514610427578063bb82dd1714610447578063d0532d9114610468578063d2c18f5914610489578063df3f2f8a1461049e578063e9aea8c8146104c2578063fa5b7c70146104e3578063fc0c546a146104f8578063ffa1ad741461050d575b600080fd5b34801561019057600080fd5b506101a5600160a060020a0360043516610522565b005b3480156101b357600080fd5b506101c8600160a060020a036004351661073f565b60408051938452602084019290925282820152519081900360600190f35b3480156101f257600080fd5b506101fb610760565b60408051600160a060020a039092168252519081900360200190f35b34801561022357600080fd5b506101a560048035906024803580820192908101359160443590810191013561076f565b34801561025357600080fd5b5061025c610dc8565b60408051918252519081900360200190f35b34801561027a57600080fd5b506101fb610dce565b34801561028f57600080fd5b506101a5600435610dde565b3480156102a757600080fd5b5061025c61107f565b3480156102bc57600080fd5b506101a5611085565b3480156102d157600080fd5b5061025c6110e4565b3480156102e657600080fd5b506101a56110e9565b3480156102fb57600080fd5b5061025c6112bf565b34801561031057600080fd5b50610325600160a060020a03600435166112c5565b6040805192835260208301919091528051918290030190f35b34801561034a57600080fd5b506101fb600435611311565b34801561036257600080fd5b5061036b611339565b604080519115158252519081900360200190f35b34801561038b57600080fd5b506101a561135a565b3480156103a057600080fd5b506101a5600160a060020a03600435166114f7565b3480156103c157600080fd5b506101a56117e8565b3480156103d657600080fd5b5061036b600160a060020a0360043516611975565b3480156103f757600080fd5b506101a5600160a060020a0360043516602435611987565b34801561041b57600080fd5b506101a5600435611aa6565b34801561043357600080fd5b506101a56004803560248101910135611bca565b34801561045357600080fd5b506101a5600160a060020a0360043516611cf6565b34801561047457600080fd5b506101a5600160a060020a036004351661201f565b34801561049557600080fd5b506101fb61223c565b3480156104aa57600080fd5b506101a5600160a060020a036004351660243561224b565b3480156104ce57600080fd5b5061025c600160a060020a03600435166128cd565b3480156104ef57600080fd5b5061036b6128e8565b34801561050457600080fd5b506101fb61290a565b34801561051957600080fd5b5061025c612919565b600354600160a060020a031633146105aa576040805160e560020a62461bcd02815260206004820152603460248201527f5374616b696e67436f6e74726163743a2063616c6c6572206973206e6f74207460448201527f6865206d6967726174696f6e206d616e61676572000000000000000000000000606482015290519081900360840190fd5b600160a060020a0381161515610630576040805160e560020a62461bcd02815260206004820152603c60248201527f5374616b696e67436f6e74726163743a3a7365744d6967726174696f6e4d616e60448201527f61676572202d2061646472657373206d757374206e6f74206265203000000000606482015290519081900360840190fd5b600354600160a060020a03828116911614156106e2576040805160e560020a62461bcd02815260206004820152605960248201527f5374616b696e67436f6e74726163743a3a7365744d6967726174696f6e4d616e60448201527f61676572202d2061646472657373206d75737420626520646966666572656e7460648201527f207468616e207468652063757272656e74206164647265737300000000000000608482015290519081900360a40190fd5b6003805473ffffffffffffffffffffffffffffffffffffffff1916600160a060020a0383811691909117918290556040519116907fe06b7cc06400e2218f11a21ba24cb110fd587a695a09f36d42c4f7b21566937f90600090a250565b60006020819052908152604090208054600182015460029092015490919083565b600354600160a060020a031681565b6000806000806000806000600660149054906101000a900460ff1680156107b257506006547501000000000000000000000000000000000000000000900460ff16155b151561082e576040805160e560020a62461bcd02815260206004820152602960248201527f5374616b696e67436f6e74726163743a206e6f7420616363657074696e67206e60448201527f6577207374616b65730000000000000000000000000000000000000000000000606482015290519081900360840190fd5b60008c116108d2576040805160e560020a62461bcd02815260206004820152604860248201527f5374616b696e67436f6e74726163743a3a64697374726962757465526577617260448201527f6473202d20746f74616c20616d6f756e74206d7573742062652067726561746560648201527f72207468616e2030000000000000000000000000000000000000000000000000608482015290519081900360a40190fd5b8996508795506000871180156108e85750600086115b1515610964576040805160e560020a62461bcd02815260206004820152603960248201527f5374616b696e67436f6e74726163743a3a64697374726962757465526577617260448201527f6473202d206c697374732063616e277420626520656d70747900000000000000606482015290519081900360840190fd5b868614610a07576040805160e560020a62461bcd02815260206004820152604360248201527f5374616b696e67436f6e74726163743a3a64697374726962757465526577617260448201527f6473202d206c69737473206d757374206265206f66207468652073616d65207360648201527f697a650000000000000000000000000000000000000000000000000000000000608482015290519081900360a40190fd5b600654604080517f23b872dd000000000000000000000000000000000000000000000000000000008152336004820152306024820152604481018f90529051600160a060020a03909216916323b872dd916064808201926020929091908290030181600087803b158015610a7a57600080fd5b505af1158015610a8e573d6000803e3d6000fd5b505050506040513d6020811015610aa457600080fd5b50511515610b22576040805160e560020a62461bcd02815260206004820152603b60248201527f5374616b696e67436f6e74726163743a3a64697374726962757465526577617260448201527f6473202d20696e73756666696369656e7420616c6c6f77616e63650000000000606482015290519081900360840190fd5b60009450600093505b86841015610d27578a8a85818110610b3f57fe5b90506020020135600160a060020a031692508888858181101515610b5f57fe5b6020029190910135925050600160a060020a0383161515610bf0576040805160e560020a62461bcd02815260206004820152603b60248201527f5374616b696e67436f6e74726163743a3a64697374726962757465526577617260448201527f6473202d207374616b65206f776e65722063616e277420626520300000000000606482015290519081900360840190fd5b60008211610c94576040805160e560020a62461bcd02815260206004820152604260248201527f5374616b696e67436f6e74726163743a3a64697374726962757465526577617260448201527f6473202d20616d6f756e74206d7573742062652067726561746572207468616e60648201527f2030000000000000000000000000000000000000000000000000000000000000608482015290519081900360a40190fd5b50600160a060020a03821660009081526020819052604090208054610cbf908363ffffffff61291e16565b8155610cd1858363ffffffff61291e16565b81546040805185815260208101929092528051929750600160a060020a038616927f1449c6dd7851abc30abf37f57715f492010519147cc2652fbc38202c18a6ee909281900390910190a2836001019350610b2b565b8b8514610da4576040805160e560020a62461bcd02815260206004820152603b60248201527f5374616b696e67436f6e74726163743a3a64697374726962757465526577617260448201527f6473202d20696e636f727265637420746f74616c20616d6f756e740000000000606482015290519081900360840190fd5b600154610db7908d63ffffffff61291e16565b600155505050505050505050505050565b60025481565b600654600160a060020a03165b90565b600080808080808611610e61576040805160e560020a62461bcd02815260206004820152603860248201527f5374616b696e67436f6e74726163743a3a756e7374616b65202d20616d6f756e60448201527f74206d7573742062652067726561746572207468616e20300000000000000000606482015290519081900360840190fd5b505033600081815260208190526040902080546001820154600283015493965091945092509082861115610f2c576040805160e560020a62461bcd028152602060048201526044602482018190527f5374616b696e67436f6e74726163743a3a756e7374616b65202d2063616e2774908201527f20756e7374616b65206d6f7265207468616e207468652063757272656e74207360648201527f74616b6500000000000000000000000000000000000000000000000000000000608482015290519081900360a40190fd5b811580610f3857504281115b1515610fda576040805160e560020a62461bcd02815260206004820152605560248201527f5374616b696e67436f6e74726163743a3a756e7374616b65202d20756e61626c60448201527f6520746f20756e7374616b65207768656e2074686572652061726520746f6b6560648201527f6e732070656e64696e67207769746864726177616c0000000000000000000000608482015290519081900360a40190fd5b610fea838763ffffffff61293b16565b8455610ffc828763ffffffff61291e16565b600185015560025461101590429063ffffffff61291e16565b600285015560015461102d908763ffffffff61293b16565b60015583546040805188815260208101929092528051600160a060020a038816927f7fc4727e062e336010f2c282598ef5f14facb3de68cf8195c2f23e1454b2b74e92908290030190a2505050505050565b60015481565b3360008061109283612952565b9150915082600160a060020a03167fadec52fcd1408589179b85e44b434374db078b4eaf793e7d1a1bb0ae4ecfeee58383604051808381526020018281526020019250505060405180910390a2505050565b600a81565b6000806000600660149054906101000a900460ff16801561112657506006547501000000000000000000000000000000000000000000900460ff16155b15156111a2576040805160e560020a62461bcd02815260206004820152602960248201527f5374616b696e67436f6e74726163743a206e6f7420616363657074696e67206e60448201527f6577207374616b65730000000000000000000000000000000000000000000000606482015290519081900360840190fd5b5050336000818152602081905260408120600181015492935091908111611239576040805160e560020a62461bcd02815260206004820152602d60248201527f5374616b696e67436f6e74726163743a3a72657374616b65202d206e6f20756e60448201527f7374616b656420746f6b656e7300000000000000000000000000000000000000606482015290519081900360840190fd5b815461124b908263ffffffff61291e16565b825560006001808401829055600284019190915554611270908263ffffffff61291e16565b60015581546040805183815260208101929092528051600160a060020a038616927fa217c421e0e9357b7b1815d752952b142ddc0e23f9f14ecb8233f8f83d563c4d92908290030190a2505050565b60015490565b6000806112d0612fd6565b505050600160a060020a0316600090815260208181526040918290208251606081018452815481526001820154928101839052600290910154920182905291565b600580548290811061131f57fe5b600091825260209091200154600160a060020a0316905081565b60065474010000000000000000000000000000000000000000900460ff1681565b600454600160a060020a031633146113e2576040805160e560020a62461bcd02815260206004820152603460248201527f5374616b696e67436f6e74726163743a2063616c6c6572206973206e6f74207460448201527f686520656d657267656e6379206d616e61676572000000000000000000000000606482015290519081900360840190fd5b60065474010000000000000000000000000000000000000000900460ff16801561142857506006547501000000000000000000000000000000000000000000900460ff16155b15156114a4576040805160e560020a62461bcd02815260206004820152602960248201527f5374616b696e67436f6e74726163743a206e6f7420616363657074696e67206e60448201527f6577207374616b65730000000000000000000000000000000000000000000000606482015290519081900360840190fd5b600680547fffffffffffffffffffffff00ffffffffffffffffffffffffffffffffffffffff1690556040517fbdbd7b3d2870b142b863f835ac06bf8aa59717f4295c2d0f4d9636fb4e5bb41890600090a1565b6003546000908190600160a060020a03163314611584576040805160e560020a62461bcd02815260206004820152603460248201527f5374616b696e67436f6e74726163743a2063616c6c6572206973206e6f74207460448201527f6865206d6967726174696f6e206d616e61676572000000000000000000000000606482015290519081900360840190fd5b600160a060020a0383161515611630576040805160e560020a62461bcd02815260206004820152604360248201527f5374616b696e67436f6e74726163743a3a72656d6f76654d6967726174696f6e60448201527f44657374696e6174696f6e202d2061646472657373206d757374206e6f74206260648201527f6520300000000000000000000000000000000000000000000000000000000000608482015290519081900360a40190fd5b61163983612d09565b915091508015156116e0576040805160e560020a62461bcd02815260206004820152604c60248201527f5374616b696e67436f6e74726163743a3a72656d6f76654d6967726174696f6e60448201527f44657374696e6174696f6e202d207374616b696e6720636f6e7472616374206460648201527f6f65736e27742065786973740000000000000000000000000000000000000000608482015290519081900360a40190fd5b600554600019018210156117675760058054600184019081106116ff57fe5b60009182526020909120015460058054600160a060020a03909216918490811061172557fe5b6000918252602090912001805473ffffffffffffffffffffffffffffffffffffffff1916600160a060020a0392909216919091179055600191909101906116e0565b600580548390811061177557fe5b6000918252602090912001805473ffffffffffffffffffffffffffffffffffffffff1916905560058054906117ae906000198301612ff8565b50604051600160a060020a038416907f8510e225439ac2e1e619dffc86503855de99ded73d69499cadb36719ab7ac35490600090a2505050565b600454600160a060020a03163314611870576040805160e560020a62461bcd02815260206004820152603460248201527f5374616b696e67436f6e74726163743a2063616c6c6572206973206e6f74207460448201527f686520656d657267656e6379206d616e61676572000000000000000000000000606482015290519081900360840190fd5b6006547501000000000000000000000000000000000000000000900460ff161561190a576040805160e560020a62461bcd02815260206004820152602560248201527f5374616b696e67436f6e74726163743a2072656c656173696e6720616c6c207360448201527f74616b6573000000000000000000000000000000000000000000000000000000606482015290519081900360840190fd5b600680547fffffffffffffffffffff00ffffffffffffffffffffffffffffffffffffffffff1675010000000000000000000000000000000000000000001790556040517f44562777dd33a811a41558cd3e94176385d383dfbef2e7daf1f568fb2a3a50b490600090a1565b600061198082612d09565b9392505050565b60065460009074010000000000000000000000000000000000000000900460ff1680156119d057506006547501000000000000000000000000000000000000000000900460ff16155b1515611a4c576040805160e560020a62461bcd02815260206004820152602960248201527f5374616b696e67436f6e74726163743a206e6f7420616363657074696e67206e60448201527f6577207374616b65730000000000000000000000000000000000000000000000606482015290519081900360840190fd5b611a568383612d6c565b905082600160a060020a03167f81db9529cc03da6115de53b27832a9a0dde26bd573e99f76b23960f6be62b0c98383604051808381526020018281526020019250505060405180910390a2505050565b600654600090819074010000000000000000000000000000000000000000900460ff168015611af157506006547501000000000000000000000000000000000000000000900460ff16155b1515611b6d576040805160e560020a62461bcd02815260206004820152602960248201527f5374616b696e67436f6e74726163743a206e6f7420616363657074696e67206e60448201527f6577207374616b65730000000000000000000000000000000000000000000000606482015290519081900360840190fd5b339150611b7a8284612d6c565b905081600160a060020a03167f1449c6dd7851abc30abf37f57715f492010519147cc2652fbc38202c18a6ee908483604051808381526020018281526020019250505060405180910390a2505050565b6000806000806000600660159054906101000a900460ff161515611c5e576040805160e560020a62461bcd02815260206004820152602960248201527f5374616b696e67436f6e74726163743a206e6f742072656c656173696e67206160448201527f6c6c207374616b65730000000000000000000000000000000000000000000000606482015290519081900360840190fd5b859450600093505b84841015611ced57868685818110611c7a57fe5b90506020020135600160a060020a03169250611c9583612952565b9150915082600160a060020a03167fadec52fcd1408589179b85e44b434374db078b4eaf793e7d1a1bb0ae4ecfeee58383604051808381526020018281526020019250505060405180910390a2836001019350611c66565b50505050505050565b600354600090600160a060020a03163314611d81576040805160e560020a62461bcd02815260206004820152603460248201527f5374616b696e67436f6e74726163743a2063616c6c6572206973206e6f74207460448201527f6865206d6967726174696f6e206d616e61676572000000000000000000000000606482015290519081900360840190fd5b600160a060020a0382161515611e07576040805160e560020a62461bcd02815260206004820152602481018290527f5374616b696e67436f6e74726163743a3a6164644d6967726174696f6e44657360448201527f74696e6174696f6e202d2061646472657373206d757374206e6f742062652030606482015290519081900360840190fd5b600554600a60019091011115611eb3576040805160e560020a62461bcd02815260206004820152604b60248201527f5374616b696e67436f6e74726163743a3a6164644d6967726174696f6e44657360448201527f74696e6174696f6e202d2063616e277420616464206d6f7265207374616b696e60648201527f6720636f6e747261637473000000000000000000000000000000000000000000608482015290519081900360a40190fd5b5060005b600554811015611f995781600160a060020a0316600582815481101515611eda57fe5b600091825260209091200154600160a060020a03161415611f91576040805160e560020a62461bcd02815260206004820152605160248201527f5374616b696e67436f6e74726163743a3a6164644d6967726174696f6e44657360448201527f74696e6174696f6e202d2063616e2774206164642061206475706c696361746560648201527f207374616b696e6720636f6e7472616374000000000000000000000000000000608482015290519081900360a40190fd5b600101611eb7565b6005805460018101825560009182527f036b6384b5eca791c62761152d0c79bb0604c104a5fb6f4eb0703f3154bb3db001805473ffffffffffffffffffffffffffffffffffffffff1916600160a060020a03851690811790915560405190917fc580726bc117ebe54aaf7f71f680c52208316d7dafdd4e165a4e402c032bbc6091a25050565b600454600160a060020a031633146120a7576040805160e560020a62461bcd02815260206004820152603460248201527f5374616b696e67436f6e74726163743a2063616c6c6572206973206e6f74207460448201527f686520656d657267656e6379206d616e61676572000000000000000000000000606482015290519081900360840190fd5b600160a060020a038116151561212d576040805160e560020a62461bcd02815260206004820152603c60248201527f5374616b696e67436f6e74726163743a3a736574456d657267656e63794d616e60448201527f61676572202d2061646472657373206d757374206e6f74206265203000000000606482015290519081900360840190fd5b600454600160a060020a03828116911614156121df576040805160e560020a62461bcd02815260206004820152605960248201527f5374616b696e67436f6e74726163743a3a736574456d657267656e63794d616e60448201527f61676572202d2061646472657373206d75737420626520646966666572656e7460648201527f207468616e207468652063757272656e74206164647265737300000000000000608482015290519081900360a40190fd5b6004805473ffffffffffffffffffffffffffffffffffffffff1916600160a060020a0383811691909117918290556040519116907fabe3ea374ec13aa47e312b4ed42fb5e9d47324c0d167dc4836aa048b8e5279ae90600090a250565b600454600160a060020a031681565b600654600090819081907501000000000000000000000000000000000000000000900460ff16156122ec576040805160e560020a62461bcd02815260206004820152602560248201527f5374616b696e67436f6e74726163743a2072656c656173696e6720616c6c207360448201527f74616b6573000000000000000000000000000000000000000000000000000000606482015290519081900360840190fd5b6122f585611975565b1515612397576040805160e560020a62461bcd02815260206004820152604c60248201527f5374616b696e67436f6e74726163743a3a6d6967726174655374616b6564546f60448201527f6b656e73202d206d6967726174696f6e2064657374696e6174696f6e2077617360648201527f6e277420617070726f7665640000000000000000000000000000000000000000608482015290519081900360a40190fd5b6000841161243c576040805160e560020a62461bcd028152602060048201526044602482018190527f5374616b696e67436f6e74726163743a3a6d6967726174655374616b6564546f908201527f6b656e73202d20616d6f756e74206d757374206265206772656174657220746860648201527f616e203000000000000000000000000000000000000000000000000000000000608482015290519081900360a40190fd5b50503360008181526020819052604081208054929350919081116124d0576040805160e560020a62461bcd02815260206004820152603760248201527f5374616b696e67436f6e74726163743a3a6d6967726174655374616b6564546f60448201527f6b656e73202d206e6f207374616b656420746f6b656e73000000000000000000606482015290519081900360840190fd5b80841115612574576040805160e560020a62461bcd02815260206004820152604a60248201527f5374616b696e67436f6e74726163743a3a6d6967726174655374616b6564546f60448201527f6b656e73202d20616d6f756e742065786365656473207374616b656420746f6b60648201527f656e2062616c616e636500000000000000000000000000000000000000000000608482015290519081900360a40190fd5b612584818563ffffffff61293b16565b8255600154612599908563ffffffff61293b16565b600155600654604080517f21df0da70000000000000000000000000000000000000000000000000000000081529051600160a060020a03928316928816916321df0da79160048083019260209291908290030181600087803b1580156125fe57600080fd5b505af1158015612612573d6000803e3d6000fd5b505050506040513d602081101561262857600080fd5b5051600160a060020a0316146126d4576040805160e560020a62461bcd02815260206004820152604560248201527f5374616b696e67436f6e74726163743a3a6d6967726174655374616b6564546f60448201527f6b656e73202d207374616b656420746f6b656e73206d7573742062652074686560648201527f2073616d65000000000000000000000000000000000000000000000000000000608482015290519081900360a40190fd5b600654604080517f095ea7b3000000000000000000000000000000000000000000000000000000008152600160a060020a038881166004830152602482018890529151919092169163095ea7b39160448083019260209291908290030181600087803b15801561274357600080fd5b505af1158015612757573d6000803e3d6000fd5b505050506040513d602081101561276d57600080fd5b505115156127eb576040805160e560020a62461bcd02815260206004820152602481018290527f5374616b696e67436f6e74726163743a3a6d6967726174655374616b6564546f60448201527f6b656e73202d20636f756c646e277420617070726f7665207472616e73666572606482015290519081900360840190fd5b81546040805186815260208101929092528051600160a060020a038616927f9571cc7fab3ada3041abcbb4d26ead1cf5757f940f1096da3713584afc4b75cb92908290030190a284600160a060020a031663a53acf6184866040518363ffffffff167c01000000000000000000000000000000000000000000000000000000000281526004018083600160a060020a0316600160a060020a0316815260200182815260200192505050600060405180830381600087803b1580156128ae57600080fd5b505af11580156128c2573d6000803e3d6000fd5b505050505050505050565b600160a060020a031660009081526020819052604090205490565b6006547501000000000000000000000000000000000000000000900460ff1681565b600654600160a060020a031681565b600181565b60008282018381101561293057600080fd5b8091505b5092915050565b6000808383111561294b57600080fd5b5050900390565b60008080600160a060020a03841615156129dc576040805160e560020a62461bcd02815260206004820152603260248201527f5374616b696e67436f6e74726163743a3a7769746864726177202d207374616b60448201527f65206f776e65722063616e277420626520300000000000000000000000000000606482015290519081900360840190fd5b505050600160a060020a0381166000908152602081905260409020805460018201546006549092907501000000000000000000000000000000000000000000900460ff161515612b2b5760008311612aa4576040805160e560020a62461bcd02815260206004820152602e60248201527f5374616b696e67436f6e74726163743a3a7769746864726177202d206e6f207560448201527f6e7374616b656420746f6b656e73000000000000000000000000000000000000606482015290519081900360840190fd5b6002810154421015612b26576040805160e560020a62461bcd02815260206004820152603860248201527f5374616b696e67436f6e74726163743a3a7769746864726177202d20746f6b6560448201527f6e7320617265207374696c6c20696e20636f6f6c646f776e0000000000000000606482015290519081900360840190fd5b612bda565b612b3b838363ffffffff61291e16565b925060008311612bbb576040805160e560020a62461bcd02815260206004820152603860248201527f5374616b696e67436f6e74726163743a3a7769746864726177202d206e6f207360448201527f74616b6564206f7220756e7374616b656420746f6b656e730000000000000000606482015290519081900360840190fd5b60008155600154612bd2908363ffffffff61293b16565b600155600091505b60006001820181905560028201819055600654604080517fa9059cbb000000000000000000000000000000000000000000000000000000008152600160a060020a038881166004830152602482018890529151919092169263a9059cbb92604480820193602093909283900390910190829087803b158015612c5b57600080fd5b505af1158015612c6f573d6000803e3d6000fd5b505050506040513d6020811015612c8557600080fd5b50511515612d03576040805160e560020a62461bcd02815260206004820152603360248201527f5374616b696e67436f6e74726163743a3a7769746864726177202d20636f756c60448201527f646e2774207472616e73666572207374616b6500000000000000000000000000606482015290519081900360840190fd5b50915091565b60055460009081905b80831015612d625783600160a060020a0316600584815481101515612d3357fe5b600091825260209091200154600160a060020a03161415612d575760019150612d03565b826001019250612d12565b6000915050915091565b600080600160a060020a0384161515612df5576040805160e560020a62461bcd02815260206004820152602f60248201527f5374616b696e67436f6e74726163743a3a7374616b65202d207374616b65206f60448201527f776e65722063616e277420626520300000000000000000000000000000000000606482015290519081900360840190fd5b60008311612e73576040805160e560020a62461bcd02815260206004820152603660248201527f5374616b696e67436f6e74726163743a3a7374616b65202d20616d6f756e742060448201527f6d7573742062652067726561746572207468616e203000000000000000000000606482015290519081900360840190fd5b50600160a060020a03831660009081526020819052604090208054612e9e908463ffffffff61291e16565b8155600154612eb3908463ffffffff61291e16565b6001558054600654604080517f23b872dd000000000000000000000000000000000000000000000000000000008152336004820152306024820152604481018790529051929450600160a060020a03909116916323b872dd916064808201926020929091908290030181600087803b158015612f2e57600080fd5b505af1158015612f42573d6000803e3d6000fd5b505050506040513d6020811015612f5857600080fd5b50511515612934576040805160e560020a62461bcd02815260206004820152602f60248201527f5374616b696e67436f6e74726163743a3a7374616b65202d20696e737566666960448201527f6369656e7420616c6c6f77616e63650000000000000000000000000000000000606482015290519081900360840190fd5b6060604051908101604052806000815260200160008152602001600081525090565b81548183558181111561301c5760008381526020902061301c918101908301613021565b505050565b610ddb91905b8082111561303b5760008155600101613027565b50905600a165627a7a723058205c746e08f5399ac033b68a26de0e50ba9be7831ccb3bd27692ddd0caaa0dc8420029",
  "source": "pragma solidity 0.4.26;\n\nimport \"openzeppelin-solidity/contracts/math/SafeMath.sol\";\n\nimport \"./IStakingContract.sol\";\n\n/// @title Orbs staking smart contract.\ncontract StakingContract is IStakingContract, IMigratableStakingContract {\n    using SafeMath for uint256;\n\n    struct Stake {\n        uint256 amount;\n        uint256 cooldownAmount;\n        uint256 cooldownEndTime;\n    }\n\n    // The version of the smart contract.\n    uint public constant VERSION = 1;\n\n    // The maximum number of approved staking contracts as migration destinations.\n    uint public constant MAX_APPROVED_STAKING_CONTRACTS = 10;\n\n    // The mapping between stake owners and their data.\n    mapping (address => Stake) public stakes;\n\n    // Total amount of staked tokens (not including unstaked tokes in cooldown or pending withdrawal).\n    uint256 public totalStakedTokens;\n\n    // The period (in seconds) between a stake owner's request to stop staking and being able to withdraw them.\n    uint256 public cooldownPeriodInSec;\n\n    // The address responsible for managing migration to a new staking contract.\n    address public migrationManager;\n\n    // The address responsible for emergency operations and graceful return of staked tokens back to their owners.\n    address public emergencyManager;\n\n    // The list of staking contracts which are approved by this contract. It would be only allowed to migrate a stake to\n    // one of these contracts.\n    IMigratableStakingContract[] public approvedStakingContracts;\n\n    // The address of the ORBS token.\n    IERC20 public token;\n\n    // Represents whether the contract accepts new staking requests. Please note, that even when it's turned off,\n    // it'd be still possible to unstake or withdraw tokens.\n    //\n    // Note: This can be turned off only once by the emergency manager of the contract.\n    bool public acceptingNewStakes = true;\n\n    // Represents whether this staking contract allows releasing all unstaked tokens unconditionally. When it's turned\n    // on, stake owners could release their staked tokens, without explicitly requesting to unstake them, and their\n    // previously unstaked tokens, regardless of the cooldown period. This also stops the contract from accepting new\n    // stakes.\n    //\n    // Note: This can be turned off only once by the emergency manager of the contract.\n    bool public releasingAllStakes = false;\n\n    event MigrationManagerUpdated(address indexed migrationManager);\n    event MigrationDestinationAdded(IMigratableStakingContract indexed stakingContract);\n    event MigrationDestinationRemoved(IMigratableStakingContract indexed stakingContract);\n    event EmergencyManagerUpdated(address indexed emergencyManager);\n    event StoppedAcceptingNewStake();\n    event ReleasedAllStakes();\n\n    modifier onlyMigrationManager() {\n        require(msg.sender == migrationManager, \"StakingContract: caller is not the migration manager\");\n\n        _;\n    }\n\n    modifier onlyEmergencyManager() {\n        require(msg.sender == emergencyManager, \"StakingContract: caller is not the emergency manager\");\n\n        _;\n    }\n\n    modifier onlyWhenAcceptingNewStakes() {\n        require(acceptingNewStakes && !releasingAllStakes, \"StakingContract: not accepting new stakes\");\n\n        _;\n    }\n\n    modifier onlyWhenStakesReleased() {\n        require(releasingAllStakes, \"StakingContract: not releasing all stakes\");\n\n        _;\n    }\n\n    modifier onlyWhenStakesNotReleased() {\n        require(!releasingAllStakes, \"StakingContract: releasing all stakes\");\n\n        _;\n    }\n\n    /// @dev Initializes the staking contract.\n    /// @param _cooldownPeriodInSec uint256 The period (in seconds) between a stake owner's request to stop staking and being\n    /// able to withdraw them.\n    /// @param _migrationManager address The address responsible for managing migration to a new staking contract.\n    /// @param _emergencyManager address The address responsible for emergency operations and graceful return of staked\n    /// tokens back to their owners.\n    /// @param _token IERC20 The address of the ORBS token.\n    constructor(uint256 _cooldownPeriodInSec, address _migrationManager, address _emergencyManager, IERC20 _token) public {\n        require(_cooldownPeriodInSec > 0, \"StakingContract::ctor - cooldown period must be greater than 0\");\n        require(_migrationManager != address(0), \"StakingContract::ctor - migration manager must not be 0\");\n        require(_emergencyManager != address(0), \"StakingContract::ctor - emergency manager must not be 0\");\n        require(address(_token) != address(0), \"StakingContract::ctor - ORBS token must not be 0\");\n\n        cooldownPeriodInSec = _cooldownPeriodInSec;\n        migrationManager = _migrationManager;\n        emergencyManager = _emergencyManager;\n        token = _token;\n    }\n\n    /// @dev Sets the address of the migration manager.\n    /// @param _newMigrationManager address The address of the new migration manager.\n    function setMigrationManager(address _newMigrationManager) external onlyMigrationManager {\n        require(_newMigrationManager != address(0), \"StakingContract::setMigrationManager - address must not be 0\");\n        require(migrationManager != _newMigrationManager,\n            \"StakingContract::setMigrationManager - address must be different than the current address\");\n\n        migrationManager = _newMigrationManager;\n\n        emit MigrationManagerUpdated(migrationManager);\n    }\n\n    /// @dev Sets the address of the emergency manager.\n    /// @param _newEmergencyManager address The address of the new emergency manager.\n    function setEmergencyManager(address _newEmergencyManager) external onlyEmergencyManager {\n        require(_newEmergencyManager != address(0), \"StakingContract::setEmergencyManager - address must not be 0\");\n        require(emergencyManager != _newEmergencyManager,\n            \"StakingContract::setEmergencyManager - address must be different than the current address\");\n\n        emergencyManager = _newEmergencyManager;\n\n        emit EmergencyManagerUpdated(emergencyManager);\n    }\n\n    /// @dev Adds a new contract to the list of approved staking contracts migration destinations.\n    /// @param _newStakingContract IMigratableStakingContract The new contract to add.\n    function addMigrationDestination(IMigratableStakingContract _newStakingContract) external onlyMigrationManager {\n        require(address(_newStakingContract) != address(0),\n            \"StakingContract::addMigrationDestination - address must not be 0\");\n        require(approvedStakingContracts.length + 1 <= MAX_APPROVED_STAKING_CONTRACTS,\n            \"StakingContract::addMigrationDestination - can't add more staking contracts\");\n\n        // Check for duplicates.\n        for (uint i = 0; i < approvedStakingContracts.length; ++i) {\n            require(approvedStakingContracts[i] != _newStakingContract,\n                \"StakingContract::addMigrationDestination - can't add a duplicate staking contract\");\n        }\n\n        approvedStakingContracts.push(_newStakingContract);\n\n        emit MigrationDestinationAdded(_newStakingContract);\n    }\n\n    /// @dev Removes a contract from the list of approved staking contracts migration destinations.\n    /// @param _stakingContract IMigratableStakingContract The contract to remove.\n    function removeMigrationDestination(IMigratableStakingContract _stakingContract) external onlyMigrationManager {\n        require(address(_stakingContract) != address(0),\n            \"StakingContract::removeMigrationDestination - address must not be 0\");\n\n        // Check for existence.\n        (uint i, bool exists) = findApprovedStakingContractIndex(_stakingContract);\n        require(exists, \"StakingContract::removeMigrationDestination - staking contract doesn't exist\");\n\n        while (i < approvedStakingContracts.length - 1) {\n            approvedStakingContracts[i] = approvedStakingContracts[i + 1];\n            i++;\n        }\n\n        delete approvedStakingContracts[i];\n        approvedStakingContracts.length--;\n\n        emit MigrationDestinationRemoved(_stakingContract);\n    }\n\n    /// @dev Stakes ORBS tokens on behalf of msg.sender. This method assumes that the user has already approved at least\n    /// the required amount using ERC20 approve.\n    /// @param _amount uint256 The amount of tokens to stake.\n    function stake(uint256 _amount) external onlyWhenAcceptingNewStakes {\n        address stakeOwner = msg.sender;\n\n        uint256 totalStakedAmount = stake(stakeOwner, _amount);\n\n        emit Staked(stakeOwner, _amount, totalStakedAmount);\n    }\n\n    /// @dev Unstakes ORBS tokens from msg.sender. If successful, this will start the cooldown period, after which\n    /// msg.sender would be able to withdraw all of his tokens.\n    /// @param _amount uint256 The amount of tokens to unstake.\n    function unstake(uint256 _amount) external {\n        require(_amount > 0, \"StakingContract::unstake - amount must be greater than 0\");\n\n        address stakeOwner = msg.sender;\n        Stake storage stakeData = stakes[stakeOwner];\n        uint256 stakedAmount = stakeData.amount;\n        uint256 cooldownAmount = stakeData.cooldownAmount;\n        uint256 cooldownEndTime = stakeData.cooldownEndTime;\n\n        require(_amount <= stakedAmount, \"StakingContract::unstake - can't unstake more than the current stake\");\n\n        // If any tokens in cooldown are ready for withdrawal - revert. Stake owner should withdraw their unstaked\n        // tokens first.\n        require(cooldownAmount == 0 || cooldownEndTime > now,\n            \"StakingContract::unstake - unable to unstake when there are tokens pending withdrawal\");\n\n        // Update the amount of tokens in cooldown. Please note that this will also restart the cooldown period of all\n        // tokens in cooldown.\n        stakeData.amount = stakedAmount.sub(_amount);\n        stakeData.cooldownAmount = cooldownAmount.add(_amount);\n        stakeData.cooldownEndTime = now.add(cooldownPeriodInSec);\n\n        totalStakedTokens = totalStakedTokens.sub(_amount);\n\n        emit Unstaked(stakeOwner, _amount, stakeData.amount);\n\n    }\n\n    /// @dev Requests to withdraw all of staked ORBS tokens back to msg.sender. Stake owners can withdraw their ORBS\n    /// tokens only after previously unstaking them and after the cooldown period has passed (unless the contract was\n    /// requested to release all stakes).\n    function withdraw() external {\n        address stakeOwner = msg.sender;\n\n        (uint256 withdrawnAmount, uint256 totalStakedAmount) = withdraw(stakeOwner);\n\n        emit Withdrew(stakeOwner, withdrawnAmount, totalStakedAmount);\n    }\n\n    /// @dev Restakes unstaked ORBS tokens (in or after cooldown) for msg.sender.\n    function restake() external onlyWhenAcceptingNewStakes {\n        address stakeOwner = msg.sender;\n        Stake storage stakeData = stakes[stakeOwner];\n        uint256 cooldownAmount = stakeData.cooldownAmount;\n\n        require(cooldownAmount > 0, \"StakingContract::restake - no unstaked tokens\");\n\n        stakeData.amount = stakeData.amount.add(cooldownAmount);\n        stakeData.cooldownAmount = 0;\n        stakeData.cooldownEndTime = 0;\n\n        totalStakedTokens = totalStakedTokens.add(cooldownAmount);\n\n        emit Restaked(stakeOwner, cooldownAmount, stakeData.amount);\n    }\n\n    /// @dev Stakes ORBS tokens on behalf of msg.sender. This method assumes that the user has already approved at least\n    /// the required amount using ERC20 approve.\n    /// @param _stakeOwner address The specified stake owner.\n    /// @param _amount uint256 The amount of tokens to stake.\n    function acceptMigration(address _stakeOwner, uint256 _amount) external onlyWhenAcceptingNewStakes {\n        uint256 totalStakedAmount = stake(_stakeOwner, _amount);\n\n        emit AcceptedMigration(_stakeOwner, _amount, totalStakedAmount);\n    }\n\n    /// @dev Migrates the stake of msg.sender from this staking contract to a new approved staking contract.\n    /// @param _newStakingContract IMigratableStakingContract The new staking contract which supports stake migration.\n    /// @param _amount uint256 The amount of tokens to migrate.\n    function migrateStakedTokens(IMigratableStakingContract _newStakingContract, uint256 _amount) external\n        onlyWhenStakesNotReleased {\n        require(isApprovedStakingContract(_newStakingContract),\n            \"StakingContract::migrateStakedTokens - migration destination wasn't approved\");\n        require(_amount > 0, \"StakingContract::migrateStakedTokens - amount must be greater than 0\");\n\n        address stakeOwner = msg.sender;\n        Stake storage stakeData = stakes[stakeOwner];\n        uint256 stakedAmount = stakeData.amount;\n\n        require(stakedAmount > 0, \"StakingContract::migrateStakedTokens - no staked tokens\");\n        require(_amount <= stakedAmount, \"StakingContract::migrateStakedTokens - amount exceeds staked token balance\");\n\n        stakeData.amount = stakedAmount.sub(_amount);\n\n        totalStakedTokens = totalStakedTokens.sub(_amount);\n\n        require(_newStakingContract.getToken() == token,\n            \"StakingContract::migrateStakedTokens - staked tokens must be the same\");\n        require(token.approve(address(_newStakingContract), _amount),\n            \"StakingContract::migrateStakedTokens - couldn't approve transfer\");\n\n        emit MigratedStake(stakeOwner, _amount, stakeData.amount);\n\n        _newStakingContract.acceptMigration(stakeOwner, _amount);\n    }\n\n    /// @dev Distributes staking rewards to a list of addresses by directly adding rewards to their stakes. This method\n    /// assumes that the user has already approved at least the required amount using ERC20 approve. Since this is a\n    /// convenience method, we aren't concerned about reaching block gas limit by using large lists. We assume that\n    /// callers will be able to properly batch/paginate their requests.\n    /// @param _totalAmount uint256 The total amount of rewards to distributes.\n    /// @param _stakeOwners address[] The addresses of the stake owners.\n    /// @param _amounts uint256[] The amounts of the rewards.\n    function distributeRewards(uint256 _totalAmount, address[] _stakeOwners, uint256[] _amounts) external\n        onlyWhenAcceptingNewStakes {\n        require(_totalAmount > 0, \"StakingContract::distributeRewards - total amount must be greater than 0\");\n\n        uint256 stakeOwnersLength = _stakeOwners.length;\n        uint256 amountsLength = _amounts.length;\n\n        require(stakeOwnersLength > 0 && amountsLength > 0,\n            \"StakingContract::distributeRewards - lists can't be empty\");\n        require(stakeOwnersLength == amountsLength,\n            \"StakingContract::distributeRewards - lists must be of the same size\");\n\n        // Transfer all the tokens to the smart contract and update the stake owners list accordingly.\n        require(token.transferFrom(msg.sender, address(this), _totalAmount),\n            \"StakingContract::distributeRewards - insufficient allowance\");\n\n        uint256 expectedTotalAmount = 0;\n        for (uint i = 0; i < stakeOwnersLength; ++i) {\n            address stakeOwner = _stakeOwners[i];\n            uint256 amount = _amounts[i];\n\n            require(stakeOwner != address(0), \"StakingContract::distributeRewards - stake owner can't be 0\");\n            require(amount > 0, \"StakingContract::distributeRewards - amount must be greater than 0\");\n\n            Stake storage stakeData = stakes[stakeOwner];\n            stakeData.amount = stakeData.amount.add(amount);\n\n            expectedTotalAmount = expectedTotalAmount.add(amount);\n\n            emit Staked(stakeOwner, amount, stakeData.amount);\n        }\n\n        require(_totalAmount == expectedTotalAmount, \"StakingContract::distributeRewards - incorrect total amount\");\n\n        totalStakedTokens = totalStakedTokens.add(_totalAmount);\n    }\n\n    /// @dev Returns the stake of the specified stake owner (excluding unstaked tokens).\n    /// @param _stakeOwner address The address to check.\n    /// @return uint256 The stake of the stake owner.\n    function getStakeBalanceOf(address _stakeOwner) external view returns (uint256) {\n        return stakes[_stakeOwner].amount;\n    }\n\n    /// @dev Returns the total amount staked tokens (excluding unstaked tokens).\n    /// @return uint256 The total staked tokens of all stake owners.\n    function getTotalStakedTokens() external view returns (uint256) {\n        return totalStakedTokens;\n    }\n\n    /// @dev Returns the time that the cooldown period ends (or ended) and the amount of tokens to be released.\n    /// @param _stakeOwner address The address to check.\n    /// @return cooldownAmount uint256 The total tokens in cooldown.\n    /// @return cooldownEndTime uint256 The time when the cooldown period ends (in seconds).\n    function getUnstakeStatus(address _stakeOwner) external view returns (uint256 cooldownAmount,\n        uint256 cooldownEndTime) {\n        Stake memory stakeData = stakes[_stakeOwner];\n        cooldownAmount = stakeData.cooldownAmount;\n        cooldownEndTime = stakeData.cooldownEndTime;\n    }\n\n    /// @dev Returns the address of the underlying staked token.\n    /// @return IERC20 The address of the token.\n    function getToken() external view returns (IERC20) {\n        return token;\n    }\n\n    /// @dev Requests the contract to stop accepting new staking requests.\n    function stopAcceptingNewStakes() external onlyEmergencyManager onlyWhenAcceptingNewStakes {\n        acceptingNewStakes = false;\n\n        emit StoppedAcceptingNewStake();\n    }\n\n    /// @dev Requests the contract to release all stakes.\n    function releaseAllStakes() external onlyEmergencyManager onlyWhenStakesNotReleased {\n        releasingAllStakes = true;\n\n        emit ReleasedAllStakes();\n    }\n\n    /// @dev Requests withdraw of released tokens of a list of addresses.\n    /// @param _stakeOwners address[] The addresses of the stake owners.\n    function withdrawReleasedStakes(address[] _stakeOwners) external onlyWhenStakesReleased {\n        uint256 stakeOwnersLength = _stakeOwners.length;\n        for (uint i = 0; i < stakeOwnersLength; ++i) {\n            address stakeOwner = _stakeOwners[i];\n\n            (uint256 withdrawnAmount, uint256 totalStakedAmount) = withdraw(stakeOwner);\n\n            emit Withdrew(stakeOwner, withdrawnAmount, totalStakedAmount);\n        }\n    }\n\n    /// @dev Returns whether a specific staking contract was approved as a migration destination.\n    /// @param _stakingContract IMigratableStakingContract The staking contract to look for.\n    /// @return exists bool The approval status.\n    function isApprovedStakingContract(IMigratableStakingContract _stakingContract) public view returns (bool exists) {\n        (, exists) = findApprovedStakingContractIndex(_stakingContract);\n    }\n\n    /// @dev Stakes amount of ORBS tokens on behalf of the specified stake owner. This method assumes that the user has\n    /// already approved at least the required amount using ERC20 approve.\n    /// @param _stakeOwner address The specified stake owner.\n    /// @param _amount uint256 The amount of tokens to stake.\n    /// @return totalStakedAmount uint256 The total stake of the stake owner.\n    function stake(address _stakeOwner, uint256 _amount) private returns (uint256 totalStakedAmount) {\n        require(_stakeOwner != address(0), \"StakingContract::stake - stake owner can't be 0\");\n        require(_amount > 0, \"StakingContract::stake - amount must be greater than 0\");\n\n        Stake storage stakeData = stakes[_stakeOwner];\n        stakeData.amount = stakeData.amount.add(_amount);\n\n        totalStakedTokens = totalStakedTokens.add(_amount);\n\n        totalStakedAmount = stakeData.amount;\n\n        // Transfer the tokens to the smart contract and update the stake owners list accordingly.\n        require(token.transferFrom(msg.sender, address(this), _amount),\n            \"StakingContract::stake - insufficient allowance\");\n    }\n\n    /// @dev Requests to withdraw all of staked ORBS tokens back to the specified stake owner. Stake owners can withdraw\n    /// their ORBS tokens only after previously unstaking them and after the cooldown period has passed (unless the\n    /// contract was requested to release all stakes).\n    /// @return withdrawnAmount uint256 The withdrawn token amount.\n    /// @return stakedAmount uint256 The remaining staked tokens amount.\n    function withdraw(address _stakeOwner) private returns (uint256 withdrawnAmount, uint256 stakedAmount) {\n        require(_stakeOwner != address(0), \"StakingContract::withdraw - stake owner can't be 0\");\n\n        Stake storage stakeData = stakes[_stakeOwner];\n        stakedAmount = stakeData.amount;\n\n        withdrawnAmount = stakeData.cooldownAmount;\n\n        if (!releasingAllStakes) {\n            require(withdrawnAmount > 0, \"StakingContract::withdraw - no unstaked tokens\");\n            require(stakeData.cooldownEndTime <= now, \"StakingContract::withdraw - tokens are still in cooldown\");\n        } else {\n            // If the contract was requested to release all stakes - allow to withdraw all staked and unstaked tokens.\n            withdrawnAmount = withdrawnAmount.add(stakedAmount);\n\n            require(withdrawnAmount > 0, \"StakingContract::withdraw - no staked or unstaked tokens\");\n\n            stakeData.amount = 0;\n\n            totalStakedTokens = totalStakedTokens.sub(stakedAmount);\n\n            stakedAmount = 0;\n        }\n\n        stakeData.cooldownAmount = 0;\n        stakeData.cooldownEndTime = 0;\n\n        require(token.transfer(_stakeOwner, withdrawnAmount), \"StakingContract::withdraw - couldn't transfer stake\");\n    }\n\n    /// @dev Returns an index of an existing approved staking contract.\n    /// @param _stakingContract IMigratableStakingContract The staking contract to look for.\n    /// @return index uint The index of the located staking contract (in the case that it was found).\n    /// @return exists bool The search result.\n    function findApprovedStakingContractIndex(IMigratableStakingContract _stakingContract) private view returns\n        (uint index, bool exists) {\n        uint length = approvedStakingContracts.length;\n        for (index = 0; index < length; ++index) {\n            if (approvedStakingContracts[index] == _stakingContract) {\n                exists = true;\n                return;\n            }\n        }\n\n        exists = false;\n    }\n}\n",
  "sourcePath": "/Users/leonid/work/orbs/orbs-staking-contract/contracts/StakingContract.sol",
  "compiler": {
    "name": "solc",
    "version": "0.4.26+commit.4563c3fc.Emscripten.clang"
  },
  "schemaVersion": "3.0.16",
  "updatedAt": "2019-12-03T15:11:32.685Z",
  "devdoc": {
    "methods": {
      "acceptMigration(address,uint256)": {
        "details": "Stakes ORBS tokens on behalf of msg.sender. This method assumes that the user has already approved at least the required amount using ERC20 approve.",
        "params": {
          "_amount": "uint256 The amount of tokens to stake.",
          "_stakeOwner": "address The specified stake owner."
        }
      },
      "addMigrationDestination(address)": {
        "details": "Adds a new contract to the list of approved staking contracts migration destinations.",
        "params": {
          "_newStakingContract": "IMigratableStakingContract The new contract to add."
        }
      },
      "distributeRewards(uint256,address[],uint256[])": {
        "details": "Distributes staking rewards to a list of addresses by directly adding rewards to their stakes. This method assumes that the user has already approved at least the required amount using ERC20 approve. Since this is a convenience method, we aren't concerned about reaching block gas limit by using large lists. We assume that callers will be able to properly batch/paginate their requests.",
        "params": {
          "_amounts": "uint256[] The amounts of the rewards.",
          "_stakeOwners": "address[] The addresses of the stake owners.",
          "_totalAmount": "uint256 The total amount of rewards to distributes."
        }
      },
      "getStakeBalanceOf(address)": {
        "details": "Returns the stake of the specified stake owner (excluding unstaked tokens).",
        "params": {
          "_stakeOwner": "address The address to check."
        },
        "return": "uint256 The stake of the stake owner."
      },
      "getToken()": {
        "details": "Returns the address of the underlying staked token.",
        "return": "IERC20 The address of the token."
      },
      "getTotalStakedTokens()": {
        "details": "Returns the total amount staked tokens (excluding unstaked tokens).",
        "return": "uint256 The total staked tokens of all stake owners."
      },
      "getUnstakeStatus(address)": {
        "details": "Returns the time that the cooldown period ends (or ended) and the amount of tokens to be released.",
        "params": {
          "_stakeOwner": "address The address to check."
        },
        "return": "cooldownAmount uint256 The total tokens in cooldown.cooldownEndTime uint256 The time when the cooldown period ends (in seconds)."
      },
      "isApprovedStakingContract(address)": {
        "details": "Returns whether a specific staking contract was approved as a migration destination.",
        "params": {
          "_stakingContract": "IMigratableStakingContract The staking contract to look for."
        },
        "return": "exists bool The approval status."
      },
      "migrateStakedTokens(address,uint256)": {
        "details": "Migrates the stake of msg.sender from this staking contract to a new approved staking contract.",
        "params": {
          "_amount": "uint256 The amount of tokens to migrate.",
          "_newStakingContract": "IMigratableStakingContract The new staking contract which supports stake migration."
        }
      },
      "releaseAllStakes()": {
        "details": "Requests the contract to release all stakes."
      },
      "removeMigrationDestination(address)": {
        "details": "Removes a contract from the list of approved staking contracts migration destinations.",
        "params": {
          "_stakingContract": "IMigratableStakingContract The contract to remove."
        }
      },
      "restake()": {
        "details": "Restakes unstaked ORBS tokens (in or after cooldown) for msg.sender."
      },
      "setEmergencyManager(address)": {
        "details": "Sets the address of the emergency manager.",
        "params": {
          "_newEmergencyManager": "address The address of the new emergency manager."
        }
      },
      "setMigrationManager(address)": {
        "details": "Sets the address of the migration manager.",
        "params": {
          "_newMigrationManager": "address The address of the new migration manager."
        }
      },
      "stake(uint256)": {
        "details": "Stakes ORBS tokens on behalf of msg.sender. This method assumes that the user has already approved at least the required amount using ERC20 approve.",
        "params": {
          "_amount": "uint256 The amount of tokens to stake."
        }
      },
      "stopAcceptingNewStakes()": {
        "details": "Requests the contract to stop accepting new staking requests."
      },
      "unstake(uint256)": {
        "details": "Unstakes ORBS tokens from msg.sender. If successful, this will start the cooldown period, after which msg.sender would be able to withdraw all of his tokens.",
        "params": {
          "_amount": "uint256 The amount of tokens to unstake."
        }
      },
      "withdraw()": {
        "details": "Requests to withdraw all of staked ORBS tokens back to msg.sender. Stake owners can withdraw their ORBS tokens only after previously unstaking them and after the cooldown period has passed (unless the contract was requested to release all stakes)."
      },
      "withdrawReleasedStakes(address[])": {
        "details": "Requests withdraw of released tokens of a list of addresses.",
        "params": {
          "_stakeOwners": "address[] The addresses of the stake owners."
        }
      }
    },
    "title": "Orbs staking smart contract."
  },
  "userdoc": {
    "methods": {}
  }
}