{
  "contractName": "TestERC20",
  "abi": [
    {
      "constant": true,
      "inputs": [],
      "name": "totalSupply",
      "outputs": [
        {
          "name": "",
          "type": "uint256"
        }
      ],
      "payable": false,
      "stateMutability": "view",
      "type": "function"
    },
    {
      "constant": false,
      "inputs": [
        {
          "name": "spender",
          "type": "address"
        },
        {
          "name": "addedValue",
          "type": "uint256"
        }
      ],
      "name": "increaseAllowance",
      "outputs": [
        {
          "name": "",
          "type": "bool"
        }
      ],
      "payable": false,
      "stateMutability": "nonpayable",
      "type": "function"
    },
    {
      "constant": true,
      "inputs": [],
      "name": "failApprove",
      "outputs": [
        {
          "name": "",
          "type": "bool"
        }
      ],
      "payable": false,
      "stateMutability": "view",
      "type": "function"
    },
    {
      "constant": true,
      "inputs": [
        {
          "name": "owner",
          "type": "address"
        }
      ],
      "name": "balanceOf",
      "outputs": [
        {
          "name": "",
          "type": "uint256"
        }
      ],
      "payable": false,
      "stateMutability": "view",
      "type": "function"
    },
    {
      "constant": true,
      "inputs": [],
      "name": "failTransfer",
      "outputs": [
        {
          "name": "",
          "type": "bool"
        }
      ],
      "payable": false,
      "stateMutability": "view",
      "type": "function"
    },
    {
      "constant": false,
      "inputs": [
        {
          "name": "spender",
          "type": "address"
        },
        {
          "name": "subtractedValue",
          "type": "uint256"
        }
      ],
      "name": "decreaseAllowance",
      "outputs": [
        {
          "name": "",
          "type": "bool"
        }
      ],
      "payable": false,
      "stateMutability": "nonpayable",
      "type": "function"
    },
    {
      "constant": true,
      "inputs": [
        {
          "name": "owner",
          "type": "address"
        },
        {
          "name": "spender",
          "type": "address"
        }
      ],
      "name": "allowance",
      "outputs": [
        {
          "name": "",
          "type": "uint256"
        }
      ],
      "payable": false,
      "stateMutability": "view",
      "type": "function"
    },
    {
      "anonymous": false,
      "inputs": [
        {
          "indexed": true,
          "name": "from",
          "type": "address"
        },
        {
          "indexed": true,
          "name": "to",
          "type": "address"
        },
        {
          "indexed": false,
          "name": "value",
          "type": "uint256"
        }
      ],
      "name": "Transfer",
      "type": "event"
    },
    {
      "anonymous": false,
      "inputs": [
        {
          "indexed": true,
          "name": "owner",
          "type": "address"
        },
        {
          "indexed": true,
          "name": "spender",
          "type": "address"
        },
        {
          "indexed": false,
          "name": "value",
          "type": "uint256"
        }
      ],
      "name": "Approval",
      "type": "event"
    },
    {
      "constant": false,
      "inputs": [
        {
          "name": "_failApprove",
          "type": "bool"
        }
      ],
      "name": "setFailApprove",
      "outputs": [],
      "payable": false,
      "stateMutability": "nonpayable",
      "type": "function"
    },
    {
      "constant": false,
      "inputs": [
        {
          "name": "_failTransfer",
          "type": "bool"
        }
      ],
      "name": "setFailTransfer",
      "outputs": [],
      "payable": false,
      "stateMutability": "nonpayable",
      "type": "function"
    },
    {
      "constant": false,
      "inputs": [
        {
          "name": "_account",
          "type": "address"
        },
        {
          "name": "_value",
          "type": "uint256"
        }
      ],
      "name": "assign",
      "outputs": [],
      "payable": false,
      "stateMutability": "nonpayable",
      "type": "function"
    },
    {
      "constant": false,
      "inputs": [
        {
          "name": "spender",
          "type": "address"
        },
        {
          "name": "value",
          "type": "uint256"
        }
      ],
      "name": "approve",
      "outputs": [
        {
          "name": "",
          "type": "bool"
        }
      ],
      "payable": false,
      "stateMutability": "nonpayable",
      "type": "function"
    },
    {
      "constant": false,
      "inputs": [
        {
          "name": "to",
          "type": "address"
        },
        {
          "name": "value",
          "type": "uint256"
        }
      ],
      "name": "transfer",
      "outputs": [
        {
          "name": "",
          "type": "bool"
        }
      ],
      "payable": false,
      "stateMutability": "nonpayable",
      "type": "function"
    },
    {
      "constant": false,
      "inputs": [
        {
          "name": "from",
          "type": "address"
        },
        {
          "name": "to",
          "type": "address"
        },
        {
          "name": "value",
          "type": "uint256"
        }
      ],
      "name": "transferFrom",
      "outputs": [
        {
          "name": "",
          "type": "bool"
        }
      ],
      "payable": false,
      "stateMutability": "nonpayable",
      "type": "function"
    }
  ],
  "bytecode": "0x608060405234801561001057600080fd5b506108a3806100206000396000f3006080604052600436106100c45763ffffffff7c0100000000000000000000000000000000000000000000000000000000600035041663095ea7b381146100c957806318160ddd1461010157806323b872dd1461012857806337dc06e414610152578063395093511461016e5780633c84e1f21461019257806370a08231146101a75780638700d3fe146101c8578063a0cf6e8b146101e2578063a457c2d7146101f7578063a9059cbb1461021b578063be7604881461023f578063dd62ed3e14610263575b600080fd5b3480156100d557600080fd5b506100ed600160a060020a036004351660243561028a565b604080519115158252519081900360200190f35b34801561010d57600080fd5b506101166102b3565b60408051918252519081900360200190f35b34801561013457600080fd5b506100ed600160a060020a03600435811690602435166044356102b9565b34801561015e57600080fd5b5061016c60043515156102e9565b005b34801561017a57600080fd5b506100ed600160a060020a03600435166024356102fc565b34801561019e57600080fd5b506100ed6103ac565b3480156101b357600080fd5b50610116600160a060020a03600435166103b5565b3480156101d457600080fd5b5061016c60043515156103d0565b3480156101ee57600080fd5b506100ed6103ea565b34801561020357600080fd5b506100ed600160a060020a03600435166024356103f8565b34801561022757600080fd5b506100ed600160a060020a0360043516602435610443565b34801561024b57600080fd5b5061016c600160a060020a0360043516602435610468565b34801561026f57600080fd5b50610116600160a060020a0360043581169060243516610488565b60035460009060ff16156102a0575060006102ad565b6102aa83836104b3565b90505b92915050565b60025490565b600354600090610100900460ff16156102d4575060006102e2565b6102df848484610531565b90505b9392505050565b6003805460ff1916911515919091179055565b6000600160a060020a038316151561031357600080fd5b336000908152600160209081526040808320600160a060020a0387168452909152902054610347908363ffffffff6105ce16565b336000818152600160209081526040808320600160a060020a0389168085529083529281902085905580519485525191937f8c5be1e5ebec7d5bd14f71427d1e84f3dd0314c0f7b2291e5b200ac8c7c3b925929081900390910190a350600192915050565b60035460ff1681565b600160a060020a031660009081526020819052604090205490565b600380549115156101000261ff0019909216919091179055565b600354610100900460ff1681565b6000600160a060020a038316151561040f57600080fd5b336000908152600160209081526040808320600160a060020a0387168452909152902054610347908363ffffffff6105e016565b600354600090610100900460ff161561045e575060006102ad565b6102aa83836105f7565b61047a82610475846103b5565b61060d565b61048482826106db565b5050565b600160a060020a03918216600090815260016020908152604080832093909416825291909152205490565b6000600160a060020a03831615156104ca57600080fd5b336000818152600160209081526040808320600160a060020a03881680855290835292819020869055805186815290519293927f8c5be1e5ebec7d5bd14f71427d1e84f3dd0314c0f7b2291e5b200ac8c7c3b925929181900390910190a350600192915050565b600160a060020a038316600090815260016020908152604080832033845290915281205482111561056157600080fd5b600160a060020a0384166000908152600160209081526040808320338452909152902054610595908363ffffffff6105e016565b600160a060020a03851660009081526001602090815260408083203384529091529020556105c4848484610785565b5060019392505050565b6000828201838110156102e257600080fd5b600080838311156105f057600080fd5b5050900390565b6000610604338484610785565b50600192915050565b600160a060020a038216151561062257600080fd5b600160a060020a03821660009081526020819052604090205481111561064757600080fd5b60025461065a908263ffffffff6105e016565b600255600160a060020a038216600090815260208190526040902054610686908263ffffffff6105e016565b600160a060020a038316600081815260208181526040808320949094558351858152935191937fddf252ad1be2c89b69c2b068fc378daa952ba7f163c4a11628f55a4df523b3ef929081900390910190a35050565b600160a060020a03821615156106f057600080fd5b600254610703908263ffffffff6105ce16565b600255600160a060020a03821660009081526020819052604090205461072f908263ffffffff6105ce16565b600160a060020a0383166000818152602081815260408083209490945583518581529351929391927fddf252ad1be2c89b69c2b068fc378daa952ba7f163c4a11628f55a4df523b3ef9281900390910190a35050565b600160a060020a0383166000908152602081905260409020548111156107aa57600080fd5b600160a060020a03821615156107bf57600080fd5b600160a060020a0383166000908152602081905260409020546107e8908263ffffffff6105e016565b600160a060020a03808516600090815260208190526040808220939093559084168152205461081d908263ffffffff6105ce16565b600160a060020a038084166000818152602081815260409182902094909455805185815290519193928716927fddf252ad1be2c89b69c2b068fc378daa952ba7f163c4a11628f55a4df523b3ef92918290030190a35050505600a165627a7a72305820f90f88879d7fadec94f84b8e849321bb1143842ca97ab0547e701e69bb44f37d0029",
  "source": "pragma solidity 0.4.26;\n\nimport \"openzeppelin-solidity/contracts/token/ERC20/ERC20.sol\";\n\ncontract TestERC20 is ERC20 {\n    bool public failApprove;\n    bool public failTransfer;\n\n    function setFailApprove(bool _failApprove) external {\n        failApprove = _failApprove;\n    }\n\n    function setFailTransfer(bool _failTransfer) external {\n        failTransfer = _failTransfer;\n    }\n\n    function assign(address _account, uint256 _value) external {\n        _burn(_account, balanceOf(_account));\n        _mint(_account, _value);\n    }\n\n    function approve(address spender, uint256 value) public returns (bool) {\n        if (failApprove) {\n            return false;\n        }\n\n        return super.approve(spender, value);\n    }\n\n    function transfer(address to, uint256 value) public returns (bool) {\n        if (failTransfer) {\n            return false;\n        }\n\n        return super.transfer(to, value);\n    }\n\n    function transferFrom(address from, address to, uint256 value) public returns (bool) {\n        if (failTransfer) {\n            return false;\n        }\n\n        return super.transferFrom(from, to, value);\n    }\n}\n",
  "sourcePath": "/Users/leonid/work/orbs/orbs-staking-contract/contracts/tests/TestERC20.sol",
  "compiler": {
    "name": "solc",
    "version": "0.4.26+commit.4563c3fc.Emscripten.clang"
  },
  "schemaVersion": "3.0.16",
  "updatedAt": "2019-12-03T15:11:32.700Z",
  "devdoc": {
    "methods": {
      "allowance(address,address)": {
        "details": "Function to check the amount of tokens that an owner allowed to a spender.",
        "params": {
          "owner": "address The address which owns the funds.",
          "spender": "address The address which will spend the funds."
        },
        "return": "A uint256 specifying the amount of tokens still available for the spender."
      },
      "balanceOf(address)": {
        "details": "Gets the balance of the specified address.",
        "params": {
          "owner": "The address to query the balance of."
        },
        "return": "An uint256 representing the amount owned by the passed address."
      },
      "decreaseAllowance(address,uint256)": {
        "details": "Decrease the amount of tokens that an owner allowed to a spender. approve should be called when allowed_[_spender] == 0. To decrement allowed value is better to use this function to avoid 2 calls (and wait until the first transaction is mined) From MonolithDAO Token.sol",
        "params": {
          "spender": "The address which will spend the funds.",
          "subtractedValue": "The amount of tokens to decrease the allowance by."
        }
      },
      "increaseAllowance(address,uint256)": {
        "details": "Increase the amount of tokens that an owner allowed to a spender. approve should be called when allowed_[_spender] == 0. To increment allowed value is better to use this function to avoid 2 calls (and wait until the first transaction is mined) From MonolithDAO Token.sol",
        "params": {
          "addedValue": "The amount of tokens to increase the allowance by.",
          "spender": "The address which will spend the funds."
        }
      },
      "totalSupply()": {
        "details": "Total number of tokens in existence"
      }
    }
  },
  "userdoc": {
    "methods": {}
  }
}